{
  "abi": [
    {
      "inputs": [
        {
          "internalType": "address[2]",
          "name": "tokens",
          "type": "address[2]"
        },
        {
          "internalType": "string",
          "name": "lpTokenName",
          "type": "string"
        },
        {
          "internalType": "string",
          "name": "lpTokenTicker",
          "type": "string"
        }
      ],
      "stateMutability": "nonpayable",
      "type": "constructor"
    },
    {
      "anonymous": false,
      "inputs": [
        {
          "indexed": false,
          "internalType": "address[2]",
          "name": "tokens",
          "type": "address[2]"
        },
        {
          "indexed": false,
          "internalType": "uint256[2]",
          "name": "tokenAmounts",
          "type": "uint256[2]"
        },
        {
          "indexed": false,
          "internalType": "uint256[2]",
          "name": "tokenReserves",
          "type": "uint256[2]"
        },
        {
          "indexed": false,
          "internalType": "uint256",
          "name": "lpTokensCreated",
          "type": "uint256"
        }
      ],
      "name": "DepositConfirmed",
      "type": "event"
    },
    {
      "anonymous": false,
      "inputs": [
        {
          "indexed": false,
          "internalType": "address[2]",
          "name": "tokens",
          "type": "address[2]"
        }
      ],
      "name": "LpCreated",
      "type": "event"
    },
    {
      "anonymous": false,
      "inputs": [
        {
          "indexed": false,
          "internalType": "string",
          "name": "name",
          "type": "string"
        },
        {
          "indexed": false,
          "internalType": "string",
          "name": "ticker",
          "type": "string"
        },
        {
          "indexed": false,
          "internalType": "address",
          "name": "tokenAddress",
          "type": "address"
        }
      ],
      "name": "LpTokenCreated",
      "type": "event"
    },
    {
      "anonymous": false,
      "inputs": [
        {
          "indexed": false,
          "internalType": "address[2]",
          "name": "tokens",
          "type": "address[2]"
        },
        {
          "indexed": false,
          "internalType": "uint256[2]",
          "name": "tokenAmounts",
          "type": "uint256[2]"
        },
        {
          "indexed": false,
          "internalType": "uint256[2]",
          "name": "tokenReserves",
          "type": "uint256[2]"
        },
        {
          "indexed": false,
          "internalType": "uint256",
          "name": "lpTokensBurned",
          "type": "uint256"
        }
      ],
      "name": "WithdrawalConfirmed",
      "type": "event"
    },
    {
      "inputs": [
        {
          "internalType": "uint256",
          "name": "x",
          "type": "uint256"
        },
        {
          "internalType": "uint256",
          "name": "y",
          "type": "uint256"
        },
        {
          "internalType": "uint256",
          "name": "z",
          "type": "uint256"
        }
      ],
      "name": "calculatePercentage",
      "outputs": [
        {
          "internalType": "uint256",
          "name": "",
          "type": "uint256"
        }
      ],
      "stateMutability": "pure",
      "type": "function"
    },
    {
      "inputs": [
        {
          "internalType": "address[]",
          "name": "tokens",
          "type": "address[]"
        },
        {
          "internalType": "uint256",
          "name": "tokenAmount",
          "type": "uint256"
        }
      ],
      "name": "calculateTokensOut",
      "outputs": [
        {
          "internalType": "uint256",
          "name": "",
          "type": "uint256"
        }
      ],
      "stateMutability": "view",
      "type": "function"
    },
    {
      "inputs": [
        {
          "internalType": "address[]",
          "name": "tokens",
          "type": "address[]"
        },
        {
          "internalType": "uint256[]",
          "name": "tokenAmounts",
          "type": "uint256[]"
        }
      ],
      "name": "deposit",
      "outputs": [],
      "stateMutability": "nonpayable",
      "type": "function"
    },
    {
      "inputs": [
        {
          "internalType": "address",
          "name": "",
          "type": "address"
        }
      ],
      "name": "interfaces",
      "outputs": [
        {
          "internalType": "contract IERC20",
          "name": "",
          "type": "address"
        }
      ],
      "stateMutability": "view",
      "type": "function"
    },
    {
      "inputs": [],
      "name": "lpToken",
      "outputs": [
        {
          "internalType": "contract ERC20PresetMinterPauser",
          "name": "",
          "type": "address"
        }
      ],
      "stateMutability": "view",
      "type": "function"
    },
    {
      "inputs": [],
      "name": "lpTokenAddress",
      "outputs": [
        {
          "internalType": "address",
          "name": "",
          "type": "address"
        }
      ],
      "stateMutability": "view",
      "type": "function"
    },
    {
      "inputs": [],
      "name": "lpTokenTotalSupply",
      "outputs": [
        {
          "internalType": "uint256",
          "name": "",
          "type": "uint256"
        }
      ],
      "stateMutability": "view",
      "type": "function"
    },
    {
      "inputs": [],
      "name": "quote",
      "outputs": [
        {
          "internalType": "uint256",
          "name": "",
          "type": "uint256"
        }
      ],
      "stateMutability": "view",
      "type": "function"
    },
    {
      "inputs": [
        {
          "internalType": "address",
          "name": "",
          "type": "address"
        }
      ],
      "name": "reserves",
      "outputs": [
        {
          "internalType": "uint256",
          "name": "",
          "type": "uint256"
        }
      ],
      "stateMutability": "view",
      "type": "function"
    },
    {
      "inputs": [],
      "name": "returnTokenAddress",
      "outputs": [
        {
          "internalType": "address",
          "name": "",
          "type": "address"
        }
      ],
      "stateMutability": "view",
      "type": "function"
    },
    {
      "inputs": [
        {
          "internalType": "address[]",
          "name": "tokens",
          "type": "address[]"
        },
        {
          "internalType": "uint256",
          "name": "tokenAmountIn",
          "type": "uint256"
        }
      ],
      "name": "swapPutIn",
      "outputs": [
        {
          "internalType": "uint256",
          "name": "",
          "type": "uint256"
        }
      ],
      "stateMutability": "nonpayable",
      "type": "function"
    },
    {
      "inputs": [],
      "name": "token0",
      "outputs": [
        {
          "internalType": "address",
          "name": "",
          "type": "address"
        }
      ],
      "stateMutability": "view",
      "type": "function"
    },
    {
      "inputs": [],
      "name": "token1",
      "outputs": [
        {
          "internalType": "address",
          "name": "",
          "type": "address"
        }
      ],
      "stateMutability": "view",
      "type": "function"
    },
    {
      "inputs": [
        {
          "internalType": "uint256",
          "name": "lpTokenAmount",
          "type": "uint256"
        }
      ],
      "name": "withdraw",
      "outputs": [],
      "stateMutability": "nonpayable",
      "type": "function"
    }
  ],
  "bytecode": "608060405260056006553480156200001657600080fd5b5060405162003b1f38038062003b1f8339810160408190526200003991620002e2565b825160208401516200004c919062000192565b600380546001600160a01b039283166001600160a01b031991821617825560028054948416948216851790556000848152600160205260408082208054841690961790955591549092168082529083902080549092161790555182908290620000b590620001cf565b620000c2929190620003e1565b604051809103906000f080158015620000df573d6000803e3d6000fd5b50600480546001600160a01b03929092166001600160a01b031992831681179091556007805490921681179091556040517f54851493c8db2b04471e2d3f6c159293d644a3d66390457a93874838f2821f789162000141918591859162000413565b60405180910390a16103e86005556040517fc95de7120b98d07a975a016e7eb89bc63674f7b9b406e03e1bcc4e952431430d906200018190859062000455565b60405180910390a150505062000491565b600080600080846001600160a01b0316866001600160a01b03161115620001be575084905083620001c4565b50839050845b909590945092505050565b611e0c8062001d1383390190565b634e487b7160e01b600052604160045260246000fd5b604080519081016001600160401b0381118282101715620002185762000218620001dd565b60405290565b60005b838110156200023b57818101518382015260200162000221565b838111156200024b576000848401525b50505050565b600082601f8301126200026357600080fd5b81516001600160401b0380821115620002805762000280620001dd565b604051601f8301601f19908116603f01168101908282118183101715620002ab57620002ab620001dd565b81604052838152866020858801011115620002c557600080fd5b620002d88460208301602089016200021e565b9695505050505050565b600080600060808486031215620002f857600080fd5b84601f8501126200030857600080fd5b62000312620001f3565b8060408601878111156200032557600080fd5b865b81811015620003585780516001600160a01b0381168114620003495760008081fd5b84526020938401930162000327565b505190945090506001600160401b03808211156200037557600080fd5b620003838783880162000251565b935060608601519150808211156200039a57600080fd5b50620003a98682870162000251565b9150509250925092565b60008151808452620003cd8160208601602086016200021e565b601f01601f19169290920160200192915050565b604081526000620003f66040830185620003b3565b82810360208401526200040a8185620003b3565b95945050505050565b606081526000620004286060830186620003b3565b82810360208401526200043c8186620003b3565b91505060018060a01b0383166040830152949350505050565b60408101818360005b6002811015620004885781516001600160a01b03168352602092830192909101906001016200045e565b50505092915050565b61187280620004a16000396000f3fe608060405234801561001057600080fd5b50600436106100ea5760003560e01c8063d01e14ce1161008c578063de19648011610066578063de196480146101f0578063efc908a114610203578063f5ae497a14610216578063ff3295651461022957600080fd5b8063d01e14ce14610194578063d21220a7146101bd578063d66bd524146101d057600080fd5b80634a66052f116100c85780634a66052f146101555780635fcbd285146101665780638b614e1214610179578063999b93af1461018c57600080fd5b80630dfe1681146100ef5780632e1a7d4d1461011f5780633275a7b614610134575b600080fd5b600254610102906001600160a01b031681565b6040516001600160a01b0390911681526020015b60405180910390f35b61013261012d366004611478565b610232565b005b610147610142366004611491565b610559565b604051908152602001610116565b6004546001600160a01b0316610102565b600754610102906001600160a01b031681565b6101476101873660046115b1565b610596565b610147610705565b6101026101a23660046115f6565b6001602052600090815260409020546001600160a01b031681565b600354610102906001600160a01b031681565b6101476101de3660046115f6565b60006020819052908152604090205481565b6101476101fe3660046115b1565b61073b565b610132610211366004611611565b6109ed565b600454610102906001600160a01b031681565b61014760055481565b6000610242826064600554610559565b6002546001600160a01b03166000908152602081905260408120549192509061026e9083906064610559565b6003546001600160a01b03166000908152602081905260408120549192509061029a9084906064610559565b60075460405163079cc67960e41b8152336004820152602481018790529192506001600160a01b0316906379cc679090604401600060405180830381600087803b1580156102e757600080fd5b505af11580156102fb573d6000803e3d6000fd5b505060055461030d9250905085610d4b565b6005556002546001600160a01b03166000908152602081905260409020546103359083610d4b565b6002546001600160a01b03908116600090815260208190526040808220939093556003549091168152205461036a9082610d4b565b6003546001600160a01b0390811660009081526020818152604080832094909455600254831682526001815283822054908290529083902054925163a9059cbb60e01b81523360048201526024810193909352169063a9059cbb90604401602060405180830381600087803b1580156103e257600080fd5b505af11580156103f6573d6000803e3d6000fd5b505050506040513d601f19601f8201168201806040525081019061041a91906116cc565b506003546001600160a01b03908116600090815260016020908152604080832054918390529182902054915163a9059cbb60e01b815233600482015260248101929092529091169063a9059cbb90604401602060405180830381600087803b15801561048557600080fd5b505af1158015610499573d6000803e3d6000fd5b505050506040513d601f19601f820116820180604052508101906104bd91906116cc565b506040805180820182526002546001600160a01b0390811680835260035490911660208084018290528451808601865287815280820187905285518087018752600094855284835286852054815292845283825292859020549082015292517f4c75041103f61d5c2986c9a72825a0f6eb13eac056941dc4017bd826d3a4c68b9361054b9392918990611717565b60405180910390a150505050565b600061058e61058961057b61056d87610d5e565b61057687610d5e565b610dc7565b61058485610d5e565b611044565b6112da565b949350505050565b600080610628600080866001815181106105b2576105b2611774565b60200260200101516001600160a01b03166001600160a01b0316815260200190815260200160002054600080876000815181106105f1576105f1611774565b60200260200101516001600160a01b03166001600160a01b031681526020019081526020016000205461135d90919063ffffffff16565b90506000610646600654606461063e91906117a0565b856064610559565b905060008060008760008151811061066057610660611774565b60200260200101516001600160a01b03166001600160a01b031681526020019081526020016000205490506000806000886001815181106106a3576106a3611774565b60200260200101516001600160a01b03166001600160a01b0316815260200190815260200160002054905060006106f76106f06106e9868661136990919063ffffffff16565b8790611375565b8390610d4b565b955050505050505b92915050565b6002546001600160a01b03908116600090815260208190526040808220546003549093168252812054909182916106ff91611375565b6000806107488484610596565b905061079b836000808760008151811061076457610764611774565b60200260200101516001600160a01b03166001600160a01b031681526020019081526020016000205461136990919063ffffffff16565b600080866000815181106107b1576107b1611774565b60200260200101516001600160a01b03166001600160a01b031681526020019081526020016000208190555061082e81600080876001815181106107f7576107f7611774565b60200260200101516001600160a01b03166001600160a01b0316815260200190815260200160002054610d4b90919063ffffffff16565b6000808660018151811061084457610844611774565b60200260200101516001600160a01b03166001600160a01b0316815260200190815260200160002081905550600160008560008151811061088757610887611774565b6020908102919091018101516001600160a01b0390811683529082019290925260409081016000205490516323b872dd60e01b8152336004820152306024820152604481018690529116906323b872dd90606401602060405180830381600087803b1580156108f557600080fd5b505af1158015610909573d6000803e3d6000fd5b505050506040513d601f19601f8201168201806040525081019061092d91906116cc565b50600160008560018151811061094557610945611774565b6020908102919091018101516001600160a01b03908116835290820192909252604090810160002054905163a9059cbb60e01b81523360048201526024810184905291169063a9059cbb90604401602060405180830381600087803b1580156109ad57600080fd5b505af11580156109c1573d6000803e3d6000fd5b505050506040513d601f19601f820116820180604052508101906109e591906116cc565b509392505050565b600080610a6484600081518110610a0657610a06611774565b602002602001015184600081518110610a2157610a21611774565b602002602001015186600181518110610a3c57610a3c611774565b602002602001015186600181518110610a5757610a57611774565b6020026020010151611381565b600380546001600160a01b03199081166001600160a01b0394851617909155600280549091169483169485179055600093845260016020526040938490205493516323b872dd60e01b815233600482015230602482015260448101849052929550935091909116906323b872dd90606401602060405180830381600087803b158015610aef57600080fd5b505af1158015610b03573d6000803e3d6000fd5b505050506040513d601f19601f82011682018060405250810190610b2791906116cc565b506003546001600160a01b03908116600090815260016020526040908190205490516323b872dd60e01b8152336004820152306024820152604481018490529116906323b872dd90606401602060405180830381600087803b158015610b8c57600080fd5b505af1158015610ba0573d6000803e3d6000fd5b505050506040513d601f19601f82011682018060405250810190610bc491906116cc565b506002546001600160a01b0316600090815260208190526040902054610bea9083611369565b6002546001600160a01b039081166000908152602081905260408082209390935560035490911681522054610c1f9082611369565b6003546001600160a01b03908116600090815260208190526040908190209290925560075491516340c10f1960e01b8152336004820152602481018590528492909116906340c10f1990604401600060405180830381600087803b158015610c8657600080fd5b505af1158015610c9a573d6000803e3d6000fd5b5050600554610cac9250905082611369565b6005556040805180820182526002546001600160a01b0390811680835260035490911660208084018290528451808601865288815280820188905285518087018752600094855284835286852054815292845283825292859020549082015292517f6829521da9e05f307da46ff3e93a56fca596e8e727158c84e107132022e2e77a93610d3c9392918690611717565b60405180910390a15050505050565b6000610d5782846117a0565b9392505050565b600081610d6d57506000919050565b816000610d79826113d5565b90506070811015610d92578060700382901b9150610da5565b6070811115610da5576070810382901c91505b613fff0160701b6001600160701b03919091161760801b92915050565b919050565b6000617fff60f084811c8216919084901c811690821415610e775780617fff1415610e45576001600160801b03198581169085161415610e1257505050600160ff1b811682186106ff565b600160ff1b6001600160801b0319868618161415610e35575050508181176106ff565b5061ffff60ef1b91506106ff9050565b600160801b600160ff1b038416610e66575061ffff60ef1b91506106ff9050565b505050600160ff1b811682186106ff565b80617fff1415610eb357600160801b600160ff1b038516610ea2575061ffff60ef1b91506106ff9050565b505050600160ff1b821681186106ff565b6001600160701b03608086901c1682610ecf5760019250610ed6565b600160701b175b6001600160701b03608086901c1682610ef25760019250610ef9565b600160701b175b9081029081610f2757600160ff1b87871816610f16576000610f1c565b600160ff1b5b9450505050506106ff565b928201926000600160e11b831015610f5a57600160e01b831015610f5357610f4e836113d5565b610f5d565b60e0610f5d565b60e15b90506140708186011015610f78576000945060009250611015565b6140e08186011015610fbb57614070851015610f9d57846140700383901c9250610fb2565b614070851115610fb257614070850383901b92505b60009450611015565b61c0dd8186011115610fd557617fff945060009250611015565b6070811115610fec576070810383901c9250610fff565b6070811015610fff578060700383901b92505b6001600160701b03831692506140df8186010394505b82607086901b888a186001607f1b60801b1660801c6001600160801b0316171760801b955050505050506106ff565b6000617fff60f084811c8216919084901c8116908214156110795780617fff1415610e66575061ffff60ef1b91506106ff9050565b80617fff14156110bd576dffffffffffffffffffffffffffff60801b8416156110ac575061ffff60ef1b91506106ff9050565b505050808218600160ff1b166106ff565b600160801b600160ff1b03841661110757600160801b600160ff1b0385166110ef575061ffff60ef1b91506106ff9050565b505050808218600160ff1b16617fff60f01b176106ff565b6001600160701b03608085901c1681611123576001915061112a565b600160701b175b6001600160701b03608087901c168361116957801561116457600061114e826113d5565b6001955060e20393840160711901939190911b90505b611173565b600160701b1760721b5b818181611182576111826117b7565b0490508061119e57600160ff1b87871816610f16576000610f1c565b6001606c1b8110156111b2576111b26117cd565b6000600160731b8210156111f157600160721b8210156111e657600160711b8210156111df5760706111e9565b60716111e9565b60725b60ff166111fa565b6111fa826113d5565b90508361407101818601111561121857617fff9450600091506112ab565b83818601613ffc0110156112335760009450600091506112ab565b83818601613f8c011015611280578385613ffc01111561125e578385613ffc010382901b9150611277565b8385613ffc01101561127757613ffc8585030382901c91505b600094506112ab565b6070811115611293576070810382901c91505b6001600160701b038216915083818601613f8d010394505b81607086901b888a186001607f1b60801b1660801c6001600160801b0316171760801b955050505050506106ff565b6000617fff60f083901c16613fff8110156112f85750600092915050565b6001607f1b608084901c1061130c57600080fd5b6140fe81111561131b57600080fd5b600160701b6001600160701b03608085901c161761406f8210156113455761406f8290031c610d57565b61406f821115610d575761406e1982011b9392505050565b6000610d5782846117e3565b6000610d578284611802565b6000610d57828461181a565b600080600080600080600080896001600160a01b03168c6001600160a01b031611156113b757508a9250899150889050876113c3565b508892508791508a9050895b929b919a509850909650945050505050565b60008082116113e357600080fd5b6000600160801b83106113f857608092831c92015b68010000000000000000831061141057604092831c92015b640100000000831061142457602092831c92015b62010000831061143657601092831c92015b610100831061144757600892831c92015b6010831061145757600492831c92015b6004831061146757600292831c92015b600283106106ff5760010192915050565b60006020828403121561148a57600080fd5b5035919050565b6000806000606084860312156114a657600080fd5b505081359360208301359350604090920135919050565b634e487b7160e01b600052604160045260246000fd5b604051601f8201601f1916810167ffffffffffffffff811182821017156114fc576114fc6114bd565b604052919050565b600067ffffffffffffffff82111561151e5761151e6114bd565b5060051b60200190565b80356001600160a01b0381168114610dc257600080fd5b600082601f83011261155057600080fd5b8135602061156561156083611504565b6114d3565b82815260059290921b8401810191818101908684111561158457600080fd5b8286015b848110156115a65761159981611528565b8352918301918301611588565b509695505050505050565b600080604083850312156115c457600080fd5b823567ffffffffffffffff8111156115db57600080fd5b6115e78582860161153f565b95602094909401359450505050565b60006020828403121561160857600080fd5b610d5782611528565b6000806040838503121561162457600080fd5b823567ffffffffffffffff8082111561163c57600080fd5b6116488683870161153f565b935060209150818501358181111561165f57600080fd5b85019050601f8101861361167257600080fd5b803561168061156082611504565b81815260059190911b8201830190838101908883111561169f57600080fd5b928401925b828410156116bd578335825292840192908401906116a4565b80955050505050509250929050565b6000602082840312156116de57600080fd5b81518015158114610d5757600080fd5b8060005b60028110156117115781518452602093840193909101906001016116f2565b50505050565b60e08101818660005b60028110156117485781516001600160a01b0316835260209283019290910190600101611720565b50505061175860408301866116ee565b61176560808301856116ee565b8260c083015295945050505050565b634e487b7160e01b600052603260045260246000fd5b634e487b7160e01b600052601160045260246000fd5b6000828210156117b2576117b261178a565b500390565b634e487b7160e01b600052601260045260246000fd5b634e487b7160e01b600052600160045260246000fd5b60008160001904831182151516156117fd576117fd61178a565b500290565b600082198211156118155761181561178a565b500190565b60008261183757634e487b7160e01b600052601260045260246000fd5b50049056fea2646970667358221220f17dd756df1823e6824a678e6150a3324e6a90f4e47082d7503c08884b52d93d64736f6c6343000809003360806040523480156200001157600080fd5b5060405162001e0c38038062001e0c8339810160408190526200003491620003b5565b8151829082906200004d90600590602085019062000242565b5080516200006390600690602084019062000242565b50506007805460ff19169055506200007d600033620000dd565b620000a97f9f2df0fed2c77648de5860a4cc508cd0818c85b8b8a1ab4ceeef8d981c8956a633620000dd565b620000d57f65d7a28e3265b37a6474929f336521b332c1681b933f6cb9f3376673440d862a33620000dd565b50506200045c565b620000f482826200012060201b620009e91760201c565b60008281526001602090815260409091206200011b918390620009f362000130821b17901c565b505050565b6200012c828262000150565b5050565b600062000147836001600160a01b038416620001f0565b90505b92915050565b6000828152602081815260408083206001600160a01b038516845290915290205460ff166200012c576000828152602081815260408083206001600160a01b03851684529091529020805460ff19166001179055620001ac3390565b6001600160a01b0316816001600160a01b0316837f2f8788117e7eff1d82e926ec794901d17c78024a50270940304540a733656f0d60405160405180910390a45050565b600081815260018301602052604081205462000239575081546001818101845560008481526020808220909301849055845484825282860190935260409020919091556200014a565b5060006200014a565b82805462000250906200041f565b90600052602060002090601f016020900481019282620002745760008555620002bf565b82601f106200028f57805160ff1916838001178555620002bf565b82800160010185558215620002bf579182015b82811115620002bf578251825591602001919060010190620002a2565b50620002cd929150620002d1565b5090565b5b80821115620002cd5760008155600101620002d2565b634e487b7160e01b600052604160045260246000fd5b600082601f8301126200031057600080fd5b81516001600160401b03808211156200032d576200032d620002e8565b604051601f8301601f19908116603f01168101908282118183101715620003585762000358620002e8565b816040528381526020925086838588010111156200037557600080fd5b600091505b838210156200039957858201830151818301840152908201906200037a565b83821115620003ab5760008385830101525b9695505050505050565b60008060408385031215620003c957600080fd5b82516001600160401b0380821115620003e157600080fd5b620003ef86838701620002fe565b935060208501519150808211156200040657600080fd5b506200041585828601620002fe565b9150509250929050565b600181811c908216806200043457607f821691505b602082108114156200045657634e487b7160e01b600052602260045260246000fd5b50919050565b6119a0806200046c6000396000f3fe608060405234801561001057600080fd5b50600436106101c45760003560e01c806370a08231116100f9578063a457c2d711610097578063d539139311610071578063d5391393146103af578063d547741f146103d6578063dd62ed3e146103e9578063e63ab1e91461042257600080fd5b8063a457c2d714610376578063a9059cbb14610389578063ca15c8731461039c57600080fd5b80639010d07c116100d35780639010d07c1461032857806391d148541461035357806395d89b4114610366578063a217fddf1461036e57600080fd5b806370a08231146102e457806379cc67901461030d5780638456cb591461032057600080fd5b8063313ce567116101665780633f4ba83a116101405780633f4ba83a146102ab57806340c10f19146102b357806342966c68146102c65780635c975abb146102d957600080fd5b8063313ce5671461027657806336568abe14610285578063395093511461029857600080fd5b806318160ddd116101a257806318160ddd1461021957806323b872dd1461022b578063248a9ca31461023e5780632f2ff15d1461026157600080fd5b806301ffc9a7146101c957806306fdde03146101f1578063095ea7b314610206575b600080fd5b6101dc6101d7366004611646565b610449565b60405190151581526020015b60405180910390f35b6101f9610474565b6040516101e8919061169c565b6101dc6102143660046116eb565b610506565b6004545b6040519081526020016101e8565b6101dc610239366004611715565b61051c565b61021d61024c366004611751565b60009081526020819052604090206001015490565b61027461026f36600461176a565b6105cb565b005b604051601281526020016101e8565b61027461029336600461176a565b6105f2565b6101dc6102a63660046116eb565b610614565b610274610650565b6102746102c13660046116eb565b6106f6565b6102746102d4366004611751565b610799565b60075460ff166101dc565b61021d6102f2366004611796565b6001600160a01b031660009081526002602052604090205490565b61027461031b3660046116eb565b6107a6565b610274610827565b61033b6103363660046117b1565b6108cb565b6040516001600160a01b0390911681526020016101e8565b6101dc61036136600461176a565b6108ea565b6101f9610913565b61021d600081565b6101dc6103843660046116eb565b610922565b6101dc6103973660046116eb565b6109bb565b61021d6103aa366004611751565b6109c8565b61021d7f9f2df0fed2c77648de5860a4cc508cd0818c85b8b8a1ab4ceeef8d981c8956a681565b6102746103e436600461176a565b6109df565b61021d6103f73660046117d3565b6001600160a01b03918216600090815260036020908152604080832093909416825291909152205490565b61021d7f65d7a28e3265b37a6474929f336521b332c1681b933f6cb9f3376673440d862a81565b60006001600160e01b03198216635a05180f60e01b148061046e575061046e82610a08565b92915050565b606060058054610483906117fd565b80601f01602080910402602001604051908101604052809291908181526020018280546104af906117fd565b80156104fc5780601f106104d1576101008083540402835291602001916104fc565b820191906000526020600020905b8154815290600101906020018083116104df57829003601f168201915b5050505050905090565b6000610513338484610a3d565b50600192915050565b6000610529848484610b61565b6001600160a01b0384166000908152600360209081526040808320338452909152902054828110156105b35760405162461bcd60e51b815260206004820152602860248201527f45524332303a207472616e7366657220616d6f756e74206578636565647320616044820152676c6c6f77616e636560c01b60648201526084015b60405180910390fd5b6105c08533858403610a3d565b506001949350505050565b6105d58282610d3c565b60008281526001602052604090206105ed90826109f3565b505050565b6105fc8282610d62565b60008281526001602052604090206105ed9082610ddc565b3360008181526003602090815260408083206001600160a01b0387168452909152812054909161051391859061064b90869061184e565b610a3d565b61067a7f65d7a28e3265b37a6474929f336521b332c1681b933f6cb9f3376673440d862a336108ea565b6106ec5760405162461bcd60e51b815260206004820152603960248201527f45524332305072657365744d696e7465725061757365723a206d75737420686160448201527f76652070617573657220726f6c6520746f20756e70617573650000000000000060648201526084016105aa565b6106f4610df1565b565b6107207f9f2df0fed2c77648de5860a4cc508cd0818c85b8b8a1ab4ceeef8d981c8956a6336108ea565b61078b5760405162461bcd60e51b815260206004820152603660248201527f45524332305072657365744d696e7465725061757365723a206d7573742068616044820152751d99481b5a5b9d195c881c9bdb19481d1bc81b5a5b9d60521b60648201526084016105aa565b6107958282610e84565b5050565b6107a33382610f6f565b50565b60006107b283336103f7565b9050818110156108105760405162461bcd60e51b8152602060048201526024808201527f45524332303a206275726e20616d6f756e74206578636565647320616c6c6f77604482015263616e636560e01b60648201526084016105aa565b61081d8333848403610a3d565b6105ed8383610f6f565b6108517f65d7a28e3265b37a6474929f336521b332c1681b933f6cb9f3376673440d862a336108ea565b6108c35760405162461bcd60e51b815260206004820152603760248201527f45524332305072657365744d696e7465725061757365723a206d75737420686160448201527f76652070617573657220726f6c6520746f20706175736500000000000000000060648201526084016105aa565b6106f46110c9565b60008281526001602052604081206108e39083611144565b9392505050565b6000918252602082815260408084206001600160a01b0393909316845291905290205460ff1690565b606060068054610483906117fd565b3360009081526003602090815260408083206001600160a01b0386168452909152812054828110156109a45760405162461bcd60e51b815260206004820152602560248201527f45524332303a2064656372656173656420616c6c6f77616e63652062656c6f77604482015264207a65726f60d81b60648201526084016105aa565b6109b13385858403610a3d565b5060019392505050565b6000610513338484610b61565b600081815260016020526040812061046e90611150565b6105fc828261115a565b6107958282611180565b60006108e3836001600160a01b038416611204565b60006001600160e01b03198216637965db0b60e01b148061046e57506301ffc9a760e01b6001600160e01b031983161461046e565b6001600160a01b038316610a9f5760405162461bcd60e51b8152602060048201526024808201527f45524332303a20617070726f76652066726f6d20746865207a65726f206164646044820152637265737360e01b60648201526084016105aa565b6001600160a01b038216610b005760405162461bcd60e51b815260206004820152602260248201527f45524332303a20617070726f766520746f20746865207a65726f206164647265604482015261737360f01b60648201526084016105aa565b6001600160a01b0383811660008181526003602090815260408083209487168084529482529182902085905590518481527f8c5be1e5ebec7d5bd14f71427d1e84f3dd0314c0f7b2291e5b200ac8c7c3b925910160405180910390a3505050565b6001600160a01b038316610bc55760405162461bcd60e51b815260206004820152602560248201527f45524332303a207472616e736665722066726f6d20746865207a65726f206164604482015264647265737360d81b60648201526084016105aa565b6001600160a01b038216610c275760405162461bcd60e51b815260206004820152602360248201527f45524332303a207472616e7366657220746f20746865207a65726f206164647260448201526265737360e81b60648201526084016105aa565b610c32838383611253565b6001600160a01b03831660009081526002602052604090205481811015610caa5760405162461bcd60e51b815260206004820152602660248201527f45524332303a207472616e7366657220616d6f756e7420657863656564732062604482015265616c616e636560d01b60648201526084016105aa565b6001600160a01b03808516600090815260026020526040808220858503905591851681529081208054849290610ce190849061184e565b92505081905550826001600160a01b0316846001600160a01b03167fddf252ad1be2c89b69c2b068fc378daa952ba7f163c4a11628f55a4df523b3ef84604051610d2d91815260200190565b60405180910390a35b50505050565b600082815260208190526040902060010154610d58813361125e565b6105ed8383611180565b6001600160a01b0381163314610dd25760405162461bcd60e51b815260206004820152602f60248201527f416363657373436f6e74726f6c3a2063616e206f6e6c792072656e6f756e636560448201526e103937b632b9903337b91039b2b63360891b60648201526084016105aa565b61079582826112c2565b60006108e3836001600160a01b038416611327565b60075460ff16610e3a5760405162461bcd60e51b815260206004820152601460248201527314185d5cd8589b194e881b9bdd081c185d5cd95960621b60448201526064016105aa565b6007805460ff191690557f5db9ee0a495bf2e6ff9c91a7834c1ba4fdd244a5e8aa4e537bd38aeae4b073aa335b6040516001600160a01b03909116815260200160405180910390a1565b6001600160a01b038216610eda5760405162461bcd60e51b815260206004820152601f60248201527f45524332303a206d696e7420746f20746865207a65726f20616464726573730060448201526064016105aa565b610ee660008383611253565b8060046000828254610ef8919061184e565b90915550506001600160a01b03821660009081526002602052604081208054839290610f2590849061184e565b90915550506040518181526001600160a01b038316906000907fddf252ad1be2c89b69c2b068fc378daa952ba7f163c4a11628f55a4df523b3ef9060200160405180910390a35050565b6001600160a01b038216610fcf5760405162461bcd60e51b815260206004820152602160248201527f45524332303a206275726e2066726f6d20746865207a65726f206164647265736044820152607360f81b60648201526084016105aa565b610fdb82600083611253565b6001600160a01b0382166000908152600260205260409020548181101561104f5760405162461bcd60e51b815260206004820152602260248201527f45524332303a206275726e20616d6f756e7420657863656564732062616c616e604482015261636560f01b60648201526084016105aa565b6001600160a01b038316600090815260026020526040812083830390556004805484929061107e908490611866565b90915550506040518281526000906001600160a01b038516907fddf252ad1be2c89b69c2b068fc378daa952ba7f163c4a11628f55a4df523b3ef9060200160405180910390a3505050565b60075460ff161561110f5760405162461bcd60e51b815260206004820152601060248201526f14185d5cd8589b194e881c185d5cd95960821b60448201526064016105aa565b6007805460ff191660011790557f62e78cea01bee320cd4e420270b5ea74000d11b0c9f74754ebdbfc544b05a258610e673390565b60006108e3838361141a565b600061046e825490565b600082815260208190526040902060010154611176813361125e565b6105ed83836112c2565b61118a82826108ea565b610795576000828152602081815260408083206001600160a01b03851684529091529020805460ff191660011790556111c03390565b6001600160a01b0316816001600160a01b0316837f2f8788117e7eff1d82e926ec794901d17c78024a50270940304540a733656f0d60405160405180910390a45050565b600081815260018301602052604081205461124b5750815460018181018455600084815260208082209093018490558454848252828601909352604090209190915561046e565b50600061046e565b6105ed838383611444565b61126882826108ea565b61079557611280816001600160a01b031660146114aa565b61128b8360206114aa565b60405160200161129c92919061187d565b60408051601f198184030181529082905262461bcd60e51b82526105aa9160040161169c565b6112cc82826108ea565b15610795576000828152602081815260408083206001600160a01b0385168085529252808320805460ff1916905551339285917ff6391f5c32d9c69d2a47ea670b442974b53935d1edc7fd64eb21e047a839171b9190a45050565b6000818152600183016020526040812054801561141057600061134b600183611866565b855490915060009061135f90600190611866565b90508181146113c457600086600001828154811061137f5761137f6118f2565b90600052602060002001549050808760000184815481106113a2576113a26118f2565b6000918252602080832090910192909255918252600188019052604090208390555b85548690806113d5576113d5611908565b60019003818190600052602060002001600090559055856001016000868152602001908152602001600020600090556001935050505061046e565b600091505061046e565b6000826000018281548110611431576114316118f2565b9060005260206000200154905092915050565b60075460ff16156105ed5760405162461bcd60e51b815260206004820152602a60248201527f45524332305061757361626c653a20746f6b656e207472616e736665722077686044820152691a5b19481c185d5cd95960b21b60648201526084016105aa565b606060006114b983600261191e565b6114c490600261184e565b67ffffffffffffffff8111156114dc576114dc61193d565b6040519080825280601f01601f191660200182016040528015611506576020820181803683370190505b509050600360fc1b81600081518110611521576115216118f2565b60200101906001600160f81b031916908160001a905350600f60fb1b81600181518110611550576115506118f2565b60200101906001600160f81b031916908160001a905350600061157484600261191e565b61157f90600161184e565b90505b60018111156115f7576f181899199a1a9b1b9c1cb0b131b232b360811b85600f16601081106115b3576115b36118f2565b1a60f81b8282815181106115c9576115c96118f2565b60200101906001600160f81b031916908160001a90535060049490941c936115f081611953565b9050611582565b5083156108e35760405162461bcd60e51b815260206004820181905260248201527f537472696e67733a20686578206c656e67746820696e73756666696369656e7460448201526064016105aa565b60006020828403121561165857600080fd5b81356001600160e01b0319811681146108e357600080fd5b60005b8381101561168b578181015183820152602001611673565b83811115610d365750506000910152565b60208152600082518060208401526116bb816040850160208701611670565b601f01601f19169190910160400192915050565b80356001600160a01b03811681146116e657600080fd5b919050565b600080604083850312156116fe57600080fd5b611707836116cf565b946020939093013593505050565b60008060006060848603121561172a57600080fd5b611733846116cf565b9250611741602085016116cf565b9150604084013590509250925092565b60006020828403121561176357600080fd5b5035919050565b6000806040838503121561177d57600080fd5b8235915061178d602084016116cf565b90509250929050565b6000602082840312156117a857600080fd5b6108e3826116cf565b600080604083850312156117c457600080fd5b50508035926020909101359150565b600080604083850312156117e657600080fd5b6117ef836116cf565b915061178d602084016116cf565b600181811c9082168061181157607f821691505b6020821081141561183257634e487b7160e01b600052602260045260246000fd5b50919050565b634e487b7160e01b600052601160045260246000fd5b6000821982111561186157611861611838565b500190565b60008282101561187857611878611838565b500390565b7f416363657373436f6e74726f6c3a206163636f756e74200000000000000000008152600083516118b5816017850160208801611670565b7001034b99036b4b9b9b4b733903937b6329607d1b60179184019182015283516118e6816028840160208801611670565b01602801949350505050565b634e487b7160e01b600052603260045260246000fd5b634e487b7160e01b600052603160045260246000fd5b600081600019048311821515161561193857611938611838565b500290565b634e487b7160e01b600052604160045260246000fd5b60008161196257611962611838565b50600019019056fea26469706673582212202ae88a622a4c0f6dc71c5b779d173e5af631d48b24b233ec6f70e4505722b83164736f6c63430008090033",
  "bytecodeSha1": "b4ceaada7e3f4435e055d1255be1df15a8cf4b80",
  "compiler": {
    "evm_version": "istanbul",
    "optimizer": {
      "enabled": true,
      "runs": 200
    },
    "version": "0.8.9+commit.e5eed63a"
  },
  "contractName": "LiquidityPool",
  "language": "Solidity",
  "natspec": {
    "kind": "dev",
    "methods": {},
    "version": 1
  },
  "opcodes": "PUSH1 0x80 PUSH1 0x40 MSTORE CALLVALUE DUP1 ISZERO PUSH2 0x10 JUMPI PUSH1 0x0 DUP1 REVERT JUMPDEST POP PUSH1 0x4 CALLDATASIZE LT PUSH2 0xEA JUMPI PUSH1 0x0 CALLDATALOAD PUSH1 0xE0 SHR DUP1 PUSH4 0xD01E14CE GT PUSH2 0x8C JUMPI DUP1 PUSH4 0xDE196480 GT PUSH2 0x66 JUMPI DUP1 PUSH4 0xDE196480 EQ PUSH2 0x1F0 JUMPI DUP1 PUSH4 0xEFC908A1 EQ PUSH2 0x203 JUMPI DUP1 PUSH4 0xF5AE497A EQ PUSH2 0x216 JUMPI DUP1 PUSH4 0xFF329565 EQ PUSH2 0x229 JUMPI PUSH1 0x0 DUP1 REVERT JUMPDEST DUP1 PUSH4 0xD01E14CE EQ PUSH2 0x194 JUMPI DUP1 PUSH4 0xD21220A7 EQ PUSH2 0x1BD JUMPI DUP1 PUSH4 0xD66BD524 EQ PUSH2 0x1D0 JUMPI PUSH1 0x0 DUP1 REVERT JUMPDEST DUP1 PUSH4 0x4A66052F GT PUSH2 0xC8 JUMPI DUP1 PUSH4 0x4A66052F EQ PUSH2 0x155 JUMPI DUP1 PUSH4 0x5FCBD285 EQ PUSH2 0x166 JUMPI DUP1 PUSH4 0x8B614E12 EQ PUSH2 0x179 JUMPI DUP1 PUSH4 0x999B93AF EQ PUSH2 0x18C JUMPI PUSH1 0x0 DUP1 REVERT JUMPDEST DUP1 PUSH4 0xDFE1681 EQ PUSH2 0xEF JUMPI DUP1 PUSH4 0x2E1A7D4D EQ PUSH2 0x11F JUMPI DUP1 PUSH4 0x3275A7B6 EQ PUSH2 0x134 JUMPI JUMPDEST PUSH1 0x0 DUP1 REVERT JUMPDEST PUSH1 0x2 SLOAD PUSH2 0x102 SWAP1 PUSH1 0x1 PUSH1 0x1 PUSH1 0xA0 SHL SUB AND DUP2 JUMP JUMPDEST PUSH1 0x40 MLOAD PUSH1 0x1 PUSH1 0x1 PUSH1 0xA0 SHL SUB SWAP1 SWAP2 AND DUP2 MSTORE PUSH1 0x20 ADD JUMPDEST PUSH1 0x40 MLOAD DUP1 SWAP2 SUB SWAP1 RETURN JUMPDEST PUSH2 0x132 PUSH2 0x12D CALLDATASIZE PUSH1 0x4 PUSH2 0x1478 JUMP JUMPDEST PUSH2 0x232 JUMP JUMPDEST STOP JUMPDEST PUSH2 0x147 PUSH2 0x142 CALLDATASIZE PUSH1 0x4 PUSH2 0x1491 JUMP JUMPDEST PUSH2 0x559 JUMP JUMPDEST PUSH1 0x40 MLOAD SWAP1 DUP2 MSTORE PUSH1 0x20 ADD PUSH2 0x116 JUMP JUMPDEST PUSH1 0x4 SLOAD PUSH1 0x1 PUSH1 0x1 PUSH1 0xA0 SHL SUB AND PUSH2 0x102 JUMP JUMPDEST PUSH1 0x7 SLOAD PUSH2 0x102 SWAP1 PUSH1 0x1 PUSH1 0x1 PUSH1 0xA0 SHL SUB AND DUP2 JUMP JUMPDEST PUSH2 0x147 PUSH2 0x187 CALLDATASIZE PUSH1 0x4 PUSH2 0x15B1 JUMP JUMPDEST PUSH2 0x596 JUMP JUMPDEST PUSH2 0x147 PUSH2 0x705 JUMP JUMPDEST PUSH2 0x102 PUSH2 0x1A2 CALLDATASIZE PUSH1 0x4 PUSH2 0x15F6 JUMP JUMPDEST PUSH1 0x1 PUSH1 0x20 MSTORE PUSH1 0x0 SWAP1 DUP2 MSTORE PUSH1 0x40 SWAP1 KECCAK256 SLOAD PUSH1 0x1 PUSH1 0x1 PUSH1 0xA0 SHL SUB AND DUP2 JUMP JUMPDEST PUSH1 0x3 SLOAD PUSH2 0x102 SWAP1 PUSH1 0x1 PUSH1 0x1 PUSH1 0xA0 SHL SUB AND DUP2 JUMP JUMPDEST PUSH2 0x147 PUSH2 0x1DE CALLDATASIZE PUSH1 0x4 PUSH2 0x15F6 JUMP JUMPDEST PUSH1 0x0 PUSH1 0x20 DUP2 SWAP1 MSTORE SWAP1 DUP2 MSTORE PUSH1 0x40 SWAP1 KECCAK256 SLOAD DUP2 JUMP JUMPDEST PUSH2 0x147 PUSH2 0x1FE CALLDATASIZE PUSH1 0x4 PUSH2 0x15B1 JUMP JUMPDEST PUSH2 0x73B JUMP JUMPDEST PUSH2 0x132 PUSH2 0x211 CALLDATASIZE PUSH1 0x4 PUSH2 0x1611 JUMP JUMPDEST PUSH2 0x9ED JUMP JUMPDEST PUSH1 0x4 SLOAD PUSH2 0x102 SWAP1 PUSH1 0x1 PUSH1 0x1 PUSH1 0xA0 SHL SUB AND DUP2 JUMP JUMPDEST PUSH2 0x147 PUSH1 0x5 SLOAD DUP2 JUMP JUMPDEST PUSH1 0x0 PUSH2 0x242 DUP3 PUSH1 0x64 PUSH1 0x5 SLOAD PUSH2 0x559 JUMP JUMPDEST PUSH1 0x2 SLOAD PUSH1 0x1 PUSH1 0x1 PUSH1 0xA0 SHL SUB AND PUSH1 0x0 SWAP1 DUP2 MSTORE PUSH1 0x20 DUP2 SWAP1 MSTORE PUSH1 0x40 DUP2 KECCAK256 SLOAD SWAP2 SWAP3 POP SWAP1 PUSH2 0x26E SWAP1 DUP4 SWAP1 PUSH1 0x64 PUSH2 0x559 JUMP JUMPDEST PUSH1 0x3 SLOAD PUSH1 0x1 PUSH1 0x1 PUSH1 0xA0 SHL SUB AND PUSH1 0x0 SWAP1 DUP2 MSTORE PUSH1 0x20 DUP2 SWAP1 MSTORE PUSH1 0x40 DUP2 KECCAK256 SLOAD SWAP2 SWAP3 POP SWAP1 PUSH2 0x29A SWAP1 DUP5 SWAP1 PUSH1 0x64 PUSH2 0x559 JUMP JUMPDEST PUSH1 0x7 SLOAD PUSH1 0x40 MLOAD PUSH4 0x79CC679 PUSH1 0xE4 SHL DUP2 MSTORE CALLER PUSH1 0x4 DUP3 ADD MSTORE PUSH1 0x24 DUP2 ADD DUP8 SWAP1 MSTORE SWAP2 SWAP3 POP PUSH1 0x1 PUSH1 0x1 PUSH1 0xA0 SHL SUB AND SWAP1 PUSH4 0x79CC6790 SWAP1 PUSH1 0x44 ADD PUSH1 0x0 PUSH1 0x40 MLOAD DUP1 DUP4 SUB DUP2 PUSH1 0x0 DUP8 DUP1 EXTCODESIZE ISZERO DUP1 ISZERO PUSH2 0x2E7 JUMPI PUSH1 0x0 DUP1 REVERT JUMPDEST POP GAS CALL ISZERO DUP1 ISZERO PUSH2 0x2FB JUMPI RETURNDATASIZE PUSH1 0x0 DUP1 RETURNDATACOPY RETURNDATASIZE PUSH1 0x0 REVERT JUMPDEST POP POP PUSH1 0x5 SLOAD PUSH2 0x30D SWAP3 POP SWAP1 POP DUP6 PUSH2 0xD4B JUMP JUMPDEST PUSH1 0x5 SSTORE PUSH1 0x2 SLOAD PUSH1 0x1 PUSH1 0x1 PUSH1 0xA0 SHL SUB AND PUSH1 0x0 SWAP1 DUP2 MSTORE PUSH1 0x20 DUP2 SWAP1 MSTORE PUSH1 0x40 SWAP1 KECCAK256 SLOAD PUSH2 0x335 SWAP1 DUP4 PUSH2 0xD4B JUMP JUMPDEST PUSH1 0x2 SLOAD PUSH1 0x1 PUSH1 0x1 PUSH1 0xA0 SHL SUB SWAP1 DUP2 AND PUSH1 0x0 SWAP1 DUP2 MSTORE PUSH1 0x20 DUP2 SWAP1 MSTORE PUSH1 0x40 DUP1 DUP3 KECCAK256 SWAP4 SWAP1 SWAP4 SSTORE PUSH1 0x3 SLOAD SWAP1 SWAP2 AND DUP2 MSTORE KECCAK256 SLOAD PUSH2 0x36A SWAP1 DUP3 PUSH2 0xD4B JUMP JUMPDEST PUSH1 0x3 SLOAD PUSH1 0x1 PUSH1 0x1 PUSH1 0xA0 SHL SUB SWAP1 DUP2 AND PUSH1 0x0 SWAP1 DUP2 MSTORE PUSH1 0x20 DUP2 DUP2 MSTORE PUSH1 0x40 DUP1 DUP4 KECCAK256 SWAP5 SWAP1 SWAP5 SSTORE PUSH1 0x2 SLOAD DUP4 AND DUP3 MSTORE PUSH1 0x1 DUP2 MSTORE DUP4 DUP3 KECCAK256 SLOAD SWAP1 DUP3 SWAP1 MSTORE SWAP1 DUP4 SWAP1 KECCAK256 SLOAD SWAP3 MLOAD PUSH4 0xA9059CBB PUSH1 0xE0 SHL DUP2 MSTORE CALLER PUSH1 0x4 DUP3 ADD MSTORE PUSH1 0x24 DUP2 ADD SWAP4 SWAP1 SWAP4 MSTORE AND SWAP1 PUSH4 0xA9059CBB SWAP1 PUSH1 0x44 ADD PUSH1 0x20 PUSH1 0x40 MLOAD DUP1 DUP4 SUB DUP2 PUSH1 0x0 DUP8 DUP1 EXTCODESIZE ISZERO DUP1 ISZERO PUSH2 0x3E2 JUMPI PUSH1 0x0 DUP1 REVERT JUMPDEST POP GAS CALL ISZERO DUP1 ISZERO PUSH2 0x3F6 JUMPI RETURNDATASIZE PUSH1 0x0 DUP1 RETURNDATACOPY RETURNDATASIZE PUSH1 0x0 REVERT JUMPDEST POP POP POP POP PUSH1 0x40 MLOAD RETURNDATASIZE PUSH1 0x1F NOT PUSH1 0x1F DUP3 ADD AND DUP3 ADD DUP1 PUSH1 0x40 MSTORE POP DUP2 ADD SWAP1 PUSH2 0x41A SWAP2 SWAP1 PUSH2 0x16CC JUMP JUMPDEST POP PUSH1 0x3 SLOAD PUSH1 0x1 PUSH1 0x1 PUSH1 0xA0 SHL SUB SWAP1 DUP2 AND PUSH1 0x0 SWAP1 DUP2 MSTORE PUSH1 0x1 PUSH1 0x20 SWAP1 DUP2 MSTORE PUSH1 0x40 DUP1 DUP4 KECCAK256 SLOAD SWAP2 DUP4 SWAP1 MSTORE SWAP2 DUP3 SWAP1 KECCAK256 SLOAD SWAP2 MLOAD PUSH4 0xA9059CBB PUSH1 0xE0 SHL DUP2 MSTORE CALLER PUSH1 0x4 DUP3 ADD MSTORE PUSH1 0x24 DUP2 ADD SWAP3 SWAP1 SWAP3 MSTORE SWAP1 SWAP2 AND SWAP1 PUSH4 0xA9059CBB SWAP1 PUSH1 0x44 ADD PUSH1 0x20 PUSH1 0x40 MLOAD DUP1 DUP4 SUB DUP2 PUSH1 0x0 DUP8 DUP1 EXTCODESIZE ISZERO DUP1 ISZERO PUSH2 0x485 JUMPI PUSH1 0x0 DUP1 REVERT JUMPDEST POP GAS CALL ISZERO DUP1 ISZERO PUSH2 0x499 JUMPI RETURNDATASIZE PUSH1 0x0 DUP1 RETURNDATACOPY RETURNDATASIZE PUSH1 0x0 REVERT JUMPDEST POP POP POP POP PUSH1 0x40 MLOAD RETURNDATASIZE PUSH1 0x1F NOT PUSH1 0x1F DUP3 ADD AND DUP3 ADD DUP1 PUSH1 0x40 MSTORE POP DUP2 ADD SWAP1 PUSH2 0x4BD SWAP2 SWAP1 PUSH2 0x16CC JUMP JUMPDEST POP PUSH1 0x40 DUP1 MLOAD DUP1 DUP3 ADD DUP3 MSTORE PUSH1 0x2 SLOAD PUSH1 0x1 PUSH1 0x1 PUSH1 0xA0 SHL SUB SWAP1 DUP2 AND DUP1 DUP4 MSTORE PUSH1 0x3 SLOAD SWAP1 SWAP2 AND PUSH1 0x20 DUP1 DUP5 ADD DUP3 SWAP1 MSTORE DUP5 MLOAD DUP1 DUP7 ADD DUP7 MSTORE DUP8 DUP2 MSTORE DUP1 DUP3 ADD DUP8 SWAP1 MSTORE DUP6 MLOAD DUP1 DUP8 ADD DUP8 MSTORE PUSH1 0x0 SWAP5 DUP6 MSTORE DUP5 DUP4 MSTORE DUP7 DUP6 KECCAK256 SLOAD DUP2 MSTORE SWAP3 DUP5 MSTORE DUP4 DUP3 MSTORE SWAP3 DUP6 SWAP1 KECCAK256 SLOAD SWAP1 DUP3 ADD MSTORE SWAP3 MLOAD PUSH32 0x4C75041103F61D5C2986C9A72825A0F6EB13EAC056941DC4017BD826D3A4C68B SWAP4 PUSH2 0x54B SWAP4 SWAP3 SWAP2 DUP10 SWAP1 PUSH2 0x1717 JUMP JUMPDEST PUSH1 0x40 MLOAD DUP1 SWAP2 SUB SWAP1 LOG1 POP POP POP POP JUMP JUMPDEST PUSH1 0x0 PUSH2 0x58E PUSH2 0x589 PUSH2 0x57B PUSH2 0x56D DUP8 PUSH2 0xD5E JUMP JUMPDEST PUSH2 0x576 DUP8 PUSH2 0xD5E JUMP JUMPDEST PUSH2 0xDC7 JUMP JUMPDEST PUSH2 0x584 DUP6 PUSH2 0xD5E JUMP JUMPDEST PUSH2 0x1044 JUMP JUMPDEST PUSH2 0x12DA JUMP JUMPDEST SWAP5 SWAP4 POP POP POP POP JUMP JUMPDEST PUSH1 0x0 DUP1 PUSH2 0x628 PUSH1 0x0 DUP1 DUP7 PUSH1 0x1 DUP2 MLOAD DUP2 LT PUSH2 0x5B2 JUMPI PUSH2 0x5B2 PUSH2 0x1774 JUMP JUMPDEST PUSH1 0x20 MUL PUSH1 0x20 ADD ADD MLOAD PUSH1 0x1 PUSH1 0x1 PUSH1 0xA0 SHL SUB AND PUSH1 0x1 PUSH1 0x1 PUSH1 0xA0 SHL SUB AND DUP2 MSTORE PUSH1 0x20 ADD SWAP1 DUP2 MSTORE PUSH1 0x20 ADD PUSH1 0x0 KECCAK256 SLOAD PUSH1 0x0 DUP1 DUP8 PUSH1 0x0 DUP2 MLOAD DUP2 LT PUSH2 0x5F1 JUMPI PUSH2 0x5F1 PUSH2 0x1774 JUMP JUMPDEST PUSH1 0x20 MUL PUSH1 0x20 ADD ADD MLOAD PUSH1 0x1 PUSH1 0x1 PUSH1 0xA0 SHL SUB AND PUSH1 0x1 PUSH1 0x1 PUSH1 0xA0 SHL SUB AND DUP2 MSTORE PUSH1 0x20 ADD SWAP1 DUP2 MSTORE PUSH1 0x20 ADD PUSH1 0x0 KECCAK256 SLOAD PUSH2 0x135D SWAP1 SWAP2 SWAP1 PUSH4 0xFFFFFFFF AND JUMP JUMPDEST SWAP1 POP PUSH1 0x0 PUSH2 0x646 PUSH1 0x6 SLOAD PUSH1 0x64 PUSH2 0x63E SWAP2 SWAP1 PUSH2 0x17A0 JUMP JUMPDEST DUP6 PUSH1 0x64 PUSH2 0x559 JUMP JUMPDEST SWAP1 POP PUSH1 0x0 DUP1 PUSH1 0x0 DUP8 PUSH1 0x0 DUP2 MLOAD DUP2 LT PUSH2 0x660 JUMPI PUSH2 0x660 PUSH2 0x1774 JUMP JUMPDEST PUSH1 0x20 MUL PUSH1 0x20 ADD ADD MLOAD PUSH1 0x1 PUSH1 0x1 PUSH1 0xA0 SHL SUB AND PUSH1 0x1 PUSH1 0x1 PUSH1 0xA0 SHL SUB AND DUP2 MSTORE PUSH1 0x20 ADD SWAP1 DUP2 MSTORE PUSH1 0x20 ADD PUSH1 0x0 KECCAK256 SLOAD SWAP1 POP PUSH1 0x0 DUP1 PUSH1 0x0 DUP9 PUSH1 0x1 DUP2 MLOAD DUP2 LT PUSH2 0x6A3 JUMPI PUSH2 0x6A3 PUSH2 0x1774 JUMP JUMPDEST PUSH1 0x20 MUL PUSH1 0x20 ADD ADD MLOAD PUSH1 0x1 PUSH1 0x1 PUSH1 0xA0 SHL SUB AND PUSH1 0x1 PUSH1 0x1 PUSH1 0xA0 SHL SUB AND DUP2 MSTORE PUSH1 0x20 ADD SWAP1 DUP2 MSTORE PUSH1 0x20 ADD PUSH1 0x0 KECCAK256 SLOAD SWAP1 POP PUSH1 0x0 PUSH2 0x6F7 PUSH2 0x6F0 PUSH2 0x6E9 DUP7 DUP7 PUSH2 0x1369 SWAP1 SWAP2 SWAP1 PUSH4 0xFFFFFFFF AND JUMP JUMPDEST DUP8 SWAP1 PUSH2 0x1375 JUMP JUMPDEST DUP4 SWAP1 PUSH2 0xD4B JUMP JUMPDEST SWAP6 POP POP POP POP POP POP JUMPDEST SWAP3 SWAP2 POP POP JUMP JUMPDEST PUSH1 0x2 SLOAD PUSH1 0x1 PUSH1 0x1 PUSH1 0xA0 SHL SUB SWAP1 DUP2 AND PUSH1 0x0 SWAP1 DUP2 MSTORE PUSH1 0x20 DUP2 SWAP1 MSTORE PUSH1 0x40 DUP1 DUP3 KECCAK256 SLOAD PUSH1 0x3 SLOAD SWAP1 SWAP4 AND DUP3 MSTORE DUP2 KECCAK256 SLOAD SWAP1 SWAP2 DUP3 SWAP2 PUSH2 0x6FF SWAP2 PUSH2 0x1375 JUMP JUMPDEST PUSH1 0x0 DUP1 PUSH2 0x748 DUP5 DUP5 PUSH2 0x596 JUMP JUMPDEST SWAP1 POP PUSH2 0x79B DUP4 PUSH1 0x0 DUP1 DUP8 PUSH1 0x0 DUP2 MLOAD DUP2 LT PUSH2 0x764 JUMPI PUSH2 0x764 PUSH2 0x1774 JUMP JUMPDEST PUSH1 0x20 MUL PUSH1 0x20 ADD ADD MLOAD PUSH1 0x1 PUSH1 0x1 PUSH1 0xA0 SHL SUB AND PUSH1 0x1 PUSH1 0x1 PUSH1 0xA0 SHL SUB AND DUP2 MSTORE PUSH1 0x20 ADD SWAP1 DUP2 MSTORE PUSH1 0x20 ADD PUSH1 0x0 KECCAK256 SLOAD PUSH2 0x1369 SWAP1 SWAP2 SWAP1 PUSH4 0xFFFFFFFF AND JUMP JUMPDEST PUSH1 0x0 DUP1 DUP7 PUSH1 0x0 DUP2 MLOAD DUP2 LT PUSH2 0x7B1 JUMPI PUSH2 0x7B1 PUSH2 0x1774 JUMP JUMPDEST PUSH1 0x20 MUL PUSH1 0x20 ADD ADD MLOAD PUSH1 0x1 PUSH1 0x1 PUSH1 0xA0 SHL SUB AND PUSH1 0x1 PUSH1 0x1 PUSH1 0xA0 SHL SUB AND DUP2 MSTORE PUSH1 0x20 ADD SWAP1 DUP2 MSTORE PUSH1 0x20 ADD PUSH1 0x0 KECCAK256 DUP2 SWAP1 SSTORE POP PUSH2 0x82E DUP2 PUSH1 0x0 DUP1 DUP8 PUSH1 0x1 DUP2 MLOAD DUP2 LT PUSH2 0x7F7 JUMPI PUSH2 0x7F7 PUSH2 0x1774 JUMP JUMPDEST PUSH1 0x20 MUL PUSH1 0x20 ADD ADD MLOAD PUSH1 0x1 PUSH1 0x1 PUSH1 0xA0 SHL SUB AND PUSH1 0x1 PUSH1 0x1 PUSH1 0xA0 SHL SUB AND DUP2 MSTORE PUSH1 0x20 ADD SWAP1 DUP2 MSTORE PUSH1 0x20 ADD PUSH1 0x0 KECCAK256 SLOAD PUSH2 0xD4B SWAP1 SWAP2 SWAP1 PUSH4 0xFFFFFFFF AND JUMP JUMPDEST PUSH1 0x0 DUP1 DUP7 PUSH1 0x1 DUP2 MLOAD DUP2 LT PUSH2 0x844 JUMPI PUSH2 0x844 PUSH2 0x1774 JUMP JUMPDEST PUSH1 0x20 MUL PUSH1 0x20 ADD ADD MLOAD PUSH1 0x1 PUSH1 0x1 PUSH1 0xA0 SHL SUB AND PUSH1 0x1 PUSH1 0x1 PUSH1 0xA0 SHL SUB AND DUP2 MSTORE PUSH1 0x20 ADD SWAP1 DUP2 MSTORE PUSH1 0x20 ADD PUSH1 0x0 KECCAK256 DUP2 SWAP1 SSTORE POP PUSH1 0x1 PUSH1 0x0 DUP6 PUSH1 0x0 DUP2 MLOAD DUP2 LT PUSH2 0x887 JUMPI PUSH2 0x887 PUSH2 0x1774 JUMP JUMPDEST PUSH1 0x20 SWAP1 DUP2 MUL SWAP2 SWAP1 SWAP2 ADD DUP2 ADD MLOAD PUSH1 0x1 PUSH1 0x1 PUSH1 0xA0 SHL SUB SWAP1 DUP2 AND DUP4 MSTORE SWAP1 DUP3 ADD SWAP3 SWAP1 SWAP3 MSTORE PUSH1 0x40 SWAP1 DUP2 ADD PUSH1 0x0 KECCAK256 SLOAD SWAP1 MLOAD PUSH4 0x23B872DD PUSH1 0xE0 SHL DUP2 MSTORE CALLER PUSH1 0x4 DUP3 ADD MSTORE ADDRESS PUSH1 0x24 DUP3 ADD MSTORE PUSH1 0x44 DUP2 ADD DUP7 SWAP1 MSTORE SWAP2 AND SWAP1 PUSH4 0x23B872DD SWAP1 PUSH1 0x64 ADD PUSH1 0x20 PUSH1 0x40 MLOAD DUP1 DUP4 SUB DUP2 PUSH1 0x0 DUP8 DUP1 EXTCODESIZE ISZERO DUP1 ISZERO PUSH2 0x8F5 JUMPI PUSH1 0x0 DUP1 REVERT JUMPDEST POP GAS CALL ISZERO DUP1 ISZERO PUSH2 0x909 JUMPI RETURNDATASIZE PUSH1 0x0 DUP1 RETURNDATACOPY RETURNDATASIZE PUSH1 0x0 REVERT JUMPDEST POP POP POP POP PUSH1 0x40 MLOAD RETURNDATASIZE PUSH1 0x1F NOT PUSH1 0x1F DUP3 ADD AND DUP3 ADD DUP1 PUSH1 0x40 MSTORE POP DUP2 ADD SWAP1 PUSH2 0x92D SWAP2 SWAP1 PUSH2 0x16CC JUMP JUMPDEST POP PUSH1 0x1 PUSH1 0x0 DUP6 PUSH1 0x1 DUP2 MLOAD DUP2 LT PUSH2 0x945 JUMPI PUSH2 0x945 PUSH2 0x1774 JUMP JUMPDEST PUSH1 0x20 SWAP1 DUP2 MUL SWAP2 SWAP1 SWAP2 ADD DUP2 ADD MLOAD PUSH1 0x1 PUSH1 0x1 PUSH1 0xA0 SHL SUB SWAP1 DUP2 AND DUP4 MSTORE SWAP1 DUP3 ADD SWAP3 SWAP1 SWAP3 MSTORE PUSH1 0x40 SWAP1 DUP2 ADD PUSH1 0x0 KECCAK256 SLOAD SWAP1 MLOAD PUSH4 0xA9059CBB PUSH1 0xE0 SHL DUP2 MSTORE CALLER PUSH1 0x4 DUP3 ADD MSTORE PUSH1 0x24 DUP2 ADD DUP5 SWAP1 MSTORE SWAP2 AND SWAP1 PUSH4 0xA9059CBB SWAP1 PUSH1 0x44 ADD PUSH1 0x20 PUSH1 0x40 MLOAD DUP1 DUP4 SUB DUP2 PUSH1 0x0 DUP8 DUP1 EXTCODESIZE ISZERO DUP1 ISZERO PUSH2 0x9AD JUMPI PUSH1 0x0 DUP1 REVERT JUMPDEST POP GAS CALL ISZERO DUP1 ISZERO PUSH2 0x9C1 JUMPI RETURNDATASIZE PUSH1 0x0 DUP1 RETURNDATACOPY RETURNDATASIZE PUSH1 0x0 REVERT JUMPDEST POP POP POP POP PUSH1 0x40 MLOAD RETURNDATASIZE PUSH1 0x1F NOT PUSH1 0x1F DUP3 ADD AND DUP3 ADD DUP1 PUSH1 0x40 MSTORE POP DUP2 ADD SWAP1 PUSH2 0x9E5 SWAP2 SWAP1 PUSH2 0x16CC JUMP JUMPDEST POP SWAP4 SWAP3 POP POP POP JUMP JUMPDEST PUSH1 0x0 DUP1 PUSH2 0xA64 DUP5 PUSH1 0x0 DUP2 MLOAD DUP2 LT PUSH2 0xA06 JUMPI PUSH2 0xA06 PUSH2 0x1774 JUMP JUMPDEST PUSH1 0x20 MUL PUSH1 0x20 ADD ADD MLOAD DUP5 PUSH1 0x0 DUP2 MLOAD DUP2 LT PUSH2 0xA21 JUMPI PUSH2 0xA21 PUSH2 0x1774 JUMP JUMPDEST PUSH1 0x20 MUL PUSH1 0x20 ADD ADD MLOAD DUP7 PUSH1 0x1 DUP2 MLOAD DUP2 LT PUSH2 0xA3C JUMPI PUSH2 0xA3C PUSH2 0x1774 JUMP JUMPDEST PUSH1 0x20 MUL PUSH1 0x20 ADD ADD MLOAD DUP7 PUSH1 0x1 DUP2 MLOAD DUP2 LT PUSH2 0xA57 JUMPI PUSH2 0xA57 PUSH2 0x1774 JUMP JUMPDEST PUSH1 0x20 MUL PUSH1 0x20 ADD ADD MLOAD PUSH2 0x1381 JUMP JUMPDEST PUSH1 0x3 DUP1 SLOAD PUSH1 0x1 PUSH1 0x1 PUSH1 0xA0 SHL SUB NOT SWAP1 DUP2 AND PUSH1 0x1 PUSH1 0x1 PUSH1 0xA0 SHL SUB SWAP5 DUP6 AND OR SWAP1 SWAP2 SSTORE PUSH1 0x2 DUP1 SLOAD SWAP1 SWAP2 AND SWAP5 DUP4 AND SWAP5 DUP6 OR SWAP1 SSTORE PUSH1 0x0 SWAP4 DUP5 MSTORE PUSH1 0x1 PUSH1 0x20 MSTORE PUSH1 0x40 SWAP4 DUP5 SWAP1 KECCAK256 SLOAD SWAP4 MLOAD PUSH4 0x23B872DD PUSH1 0xE0 SHL DUP2 MSTORE CALLER PUSH1 0x4 DUP3 ADD MSTORE ADDRESS PUSH1 0x24 DUP3 ADD MSTORE PUSH1 0x44 DUP2 ADD DUP5 SWAP1 MSTORE SWAP3 SWAP6 POP SWAP4 POP SWAP2 SWAP1 SWAP2 AND SWAP1 PUSH4 0x23B872DD SWAP1 PUSH1 0x64 ADD PUSH1 0x20 PUSH1 0x40 MLOAD DUP1 DUP4 SUB DUP2 PUSH1 0x0 DUP8 DUP1 EXTCODESIZE ISZERO DUP1 ISZERO PUSH2 0xAEF JUMPI PUSH1 0x0 DUP1 REVERT JUMPDEST POP GAS CALL ISZERO DUP1 ISZERO PUSH2 0xB03 JUMPI RETURNDATASIZE PUSH1 0x0 DUP1 RETURNDATACOPY RETURNDATASIZE PUSH1 0x0 REVERT JUMPDEST POP POP POP POP PUSH1 0x40 MLOAD RETURNDATASIZE PUSH1 0x1F NOT PUSH1 0x1F DUP3 ADD AND DUP3 ADD DUP1 PUSH1 0x40 MSTORE POP DUP2 ADD SWAP1 PUSH2 0xB27 SWAP2 SWAP1 PUSH2 0x16CC JUMP JUMPDEST POP PUSH1 0x3 SLOAD PUSH1 0x1 PUSH1 0x1 PUSH1 0xA0 SHL SUB SWAP1 DUP2 AND PUSH1 0x0 SWAP1 DUP2 MSTORE PUSH1 0x1 PUSH1 0x20 MSTORE PUSH1 0x40 SWAP1 DUP2 SWAP1 KECCAK256 SLOAD SWAP1 MLOAD PUSH4 0x23B872DD PUSH1 0xE0 SHL DUP2 MSTORE CALLER PUSH1 0x4 DUP3 ADD MSTORE ADDRESS PUSH1 0x24 DUP3 ADD MSTORE PUSH1 0x44 DUP2 ADD DUP5 SWAP1 MSTORE SWAP2 AND SWAP1 PUSH4 0x23B872DD SWAP1 PUSH1 0x64 ADD PUSH1 0x20 PUSH1 0x40 MLOAD DUP1 DUP4 SUB DUP2 PUSH1 0x0 DUP8 DUP1 EXTCODESIZE ISZERO DUP1 ISZERO PUSH2 0xB8C JUMPI PUSH1 0x0 DUP1 REVERT JUMPDEST POP GAS CALL ISZERO DUP1 ISZERO PUSH2 0xBA0 JUMPI RETURNDATASIZE PUSH1 0x0 DUP1 RETURNDATACOPY RETURNDATASIZE PUSH1 0x0 REVERT JUMPDEST POP POP POP POP PUSH1 0x40 MLOAD RETURNDATASIZE PUSH1 0x1F NOT PUSH1 0x1F DUP3 ADD AND DUP3 ADD DUP1 PUSH1 0x40 MSTORE POP DUP2 ADD SWAP1 PUSH2 0xBC4 SWAP2 SWAP1 PUSH2 0x16CC JUMP JUMPDEST POP PUSH1 0x2 SLOAD PUSH1 0x1 PUSH1 0x1 PUSH1 0xA0 SHL SUB AND PUSH1 0x0 SWAP1 DUP2 MSTORE PUSH1 0x20 DUP2 SWAP1 MSTORE PUSH1 0x40 SWAP1 KECCAK256 SLOAD PUSH2 0xBEA SWAP1 DUP4 PUSH2 0x1369 JUMP JUMPDEST PUSH1 0x2 SLOAD PUSH1 0x1 PUSH1 0x1 PUSH1 0xA0 SHL SUB SWAP1 DUP2 AND PUSH1 0x0 SWAP1 DUP2 MSTORE PUSH1 0x20 DUP2 SWAP1 MSTORE PUSH1 0x40 DUP1 DUP3 KECCAK256 SWAP4 SWAP1 SWAP4 SSTORE PUSH1 0x3 SLOAD SWAP1 SWAP2 AND DUP2 MSTORE KECCAK256 SLOAD PUSH2 0xC1F SWAP1 DUP3 PUSH2 0x1369 JUMP JUMPDEST PUSH1 0x3 SLOAD PUSH1 0x1 PUSH1 0x1 PUSH1 0xA0 SHL SUB SWAP1 DUP2 AND PUSH1 0x0 SWAP1 DUP2 MSTORE PUSH1 0x20 DUP2 SWAP1 MSTORE PUSH1 0x40 SWAP1 DUP2 SWAP1 KECCAK256 SWAP3 SWAP1 SWAP3 SSTORE PUSH1 0x7 SLOAD SWAP2 MLOAD PUSH4 0x40C10F19 PUSH1 0xE0 SHL DUP2 MSTORE CALLER PUSH1 0x4 DUP3 ADD MSTORE PUSH1 0x24 DUP2 ADD DUP6 SWAP1 MSTORE DUP5 SWAP3 SWAP1 SWAP2 AND SWAP1 PUSH4 0x40C10F19 SWAP1 PUSH1 0x44 ADD PUSH1 0x0 PUSH1 0x40 MLOAD DUP1 DUP4 SUB DUP2 PUSH1 0x0 DUP8 DUP1 EXTCODESIZE ISZERO DUP1 ISZERO PUSH2 0xC86 JUMPI PUSH1 0x0 DUP1 REVERT JUMPDEST POP GAS CALL ISZERO DUP1 ISZERO PUSH2 0xC9A JUMPI RETURNDATASIZE PUSH1 0x0 DUP1 RETURNDATACOPY RETURNDATASIZE PUSH1 0x0 REVERT JUMPDEST POP POP PUSH1 0x5 SLOAD PUSH2 0xCAC SWAP3 POP SWAP1 POP DUP3 PUSH2 0x1369 JUMP JUMPDEST PUSH1 0x5 SSTORE PUSH1 0x40 DUP1 MLOAD DUP1 DUP3 ADD DUP3 MSTORE PUSH1 0x2 SLOAD PUSH1 0x1 PUSH1 0x1 PUSH1 0xA0 SHL SUB SWAP1 DUP2 AND DUP1 DUP4 MSTORE PUSH1 0x3 SLOAD SWAP1 SWAP2 AND PUSH1 0x20 DUP1 DUP5 ADD DUP3 SWAP1 MSTORE DUP5 MLOAD DUP1 DUP7 ADD DUP7 MSTORE DUP9 DUP2 MSTORE DUP1 DUP3 ADD DUP9 SWAP1 MSTORE DUP6 MLOAD DUP1 DUP8 ADD DUP8 MSTORE PUSH1 0x0 SWAP5 DUP6 MSTORE DUP5 DUP4 MSTORE DUP7 DUP6 KECCAK256 SLOAD DUP2 MSTORE SWAP3 DUP5 MSTORE DUP4 DUP3 MSTORE SWAP3 DUP6 SWAP1 KECCAK256 SLOAD SWAP1 DUP3 ADD MSTORE SWAP3 MLOAD PUSH32 0x6829521DA9E05F307DA46FF3E93A56FCA596E8E727158C84E107132022E2E77A SWAP4 PUSH2 0xD3C SWAP4 SWAP3 SWAP2 DUP7 SWAP1 PUSH2 0x1717 JUMP JUMPDEST PUSH1 0x40 MLOAD DUP1 SWAP2 SUB SWAP1 LOG1 POP POP POP POP POP JUMP JUMPDEST PUSH1 0x0 PUSH2 0xD57 DUP3 DUP5 PUSH2 0x17A0 JUMP JUMPDEST SWAP4 SWAP3 POP POP POP JUMP JUMPDEST PUSH1 0x0 DUP2 PUSH2 0xD6D JUMPI POP PUSH1 0x0 SWAP2 SWAP1 POP JUMP JUMPDEST DUP2 PUSH1 0x0 PUSH2 0xD79 DUP3 PUSH2 0x13D5 JUMP JUMPDEST SWAP1 POP PUSH1 0x70 DUP2 LT ISZERO PUSH2 0xD92 JUMPI DUP1 PUSH1 0x70 SUB DUP3 SWAP1 SHL SWAP2 POP PUSH2 0xDA5 JUMP JUMPDEST PUSH1 0x70 DUP2 GT ISZERO PUSH2 0xDA5 JUMPI PUSH1 0x70 DUP2 SUB DUP3 SWAP1 SHR SWAP2 POP JUMPDEST PUSH2 0x3FFF ADD PUSH1 0x70 SHL PUSH1 0x1 PUSH1 0x1 PUSH1 0x70 SHL SUB SWAP2 SWAP1 SWAP2 AND OR PUSH1 0x80 SHL SWAP3 SWAP2 POP POP JUMP JUMPDEST SWAP2 SWAP1 POP JUMP JUMPDEST PUSH1 0x0 PUSH2 0x7FFF PUSH1 0xF0 DUP5 DUP2 SHR DUP3 AND SWAP2 SWAP1 DUP5 SWAP1 SHR DUP2 AND SWAP1 DUP3 EQ ISZERO PUSH2 0xE77 JUMPI DUP1 PUSH2 0x7FFF EQ ISZERO PUSH2 0xE45 JUMPI PUSH1 0x1 PUSH1 0x1 PUSH1 0x80 SHL SUB NOT DUP6 DUP2 AND SWAP1 DUP6 AND EQ ISZERO PUSH2 0xE12 JUMPI POP POP POP PUSH1 0x1 PUSH1 0xFF SHL DUP2 AND DUP3 XOR PUSH2 0x6FF JUMP JUMPDEST PUSH1 0x1 PUSH1 0xFF SHL PUSH1 0x1 PUSH1 0x1 PUSH1 0x80 SHL SUB NOT DUP7 DUP7 XOR AND EQ ISZERO PUSH2 0xE35 JUMPI POP POP POP DUP2 DUP2 OR PUSH2 0x6FF JUMP JUMPDEST POP PUSH2 0xFFFF PUSH1 0xEF SHL SWAP2 POP PUSH2 0x6FF SWAP1 POP JUMP JUMPDEST PUSH1 0x1 PUSH1 0x80 SHL PUSH1 0x1 PUSH1 0xFF SHL SUB DUP5 AND PUSH2 0xE66 JUMPI POP PUSH2 0xFFFF PUSH1 0xEF SHL SWAP2 POP PUSH2 0x6FF SWAP1 POP JUMP JUMPDEST POP POP POP PUSH1 0x1 PUSH1 0xFF SHL DUP2 AND DUP3 XOR PUSH2 0x6FF JUMP JUMPDEST DUP1 PUSH2 0x7FFF EQ ISZERO PUSH2 0xEB3 JUMPI PUSH1 0x1 PUSH1 0x80 SHL PUSH1 0x1 PUSH1 0xFF SHL SUB DUP6 AND PUSH2 0xEA2 JUMPI POP PUSH2 0xFFFF PUSH1 0xEF SHL SWAP2 POP PUSH2 0x6FF SWAP1 POP JUMP JUMPDEST POP POP POP PUSH1 0x1 PUSH1 0xFF SHL DUP3 AND DUP2 XOR PUSH2 0x6FF JUMP JUMPDEST PUSH1 0x1 PUSH1 0x1 PUSH1 0x70 SHL SUB PUSH1 0x80 DUP7 SWAP1 SHR AND DUP3 PUSH2 0xECF JUMPI PUSH1 0x1 SWAP3 POP PUSH2 0xED6 JUMP JUMPDEST PUSH1 0x1 PUSH1 0x70 SHL OR JUMPDEST PUSH1 0x1 PUSH1 0x1 PUSH1 0x70 SHL SUB PUSH1 0x80 DUP7 SWAP1 SHR AND DUP3 PUSH2 0xEF2 JUMPI PUSH1 0x1 SWAP3 POP PUSH2 0xEF9 JUMP JUMPDEST PUSH1 0x1 PUSH1 0x70 SHL OR JUMPDEST SWAP1 DUP2 MUL SWAP1 DUP2 PUSH2 0xF27 JUMPI PUSH1 0x1 PUSH1 0xFF SHL DUP8 DUP8 XOR AND PUSH2 0xF16 JUMPI PUSH1 0x0 PUSH2 0xF1C JUMP JUMPDEST PUSH1 0x1 PUSH1 0xFF SHL JUMPDEST SWAP5 POP POP POP POP POP PUSH2 0x6FF JUMP JUMPDEST SWAP3 DUP3 ADD SWAP3 PUSH1 0x0 PUSH1 0x1 PUSH1 0xE1 SHL DUP4 LT ISZERO PUSH2 0xF5A JUMPI PUSH1 0x1 PUSH1 0xE0 SHL DUP4 LT ISZERO PUSH2 0xF53 JUMPI PUSH2 0xF4E DUP4 PUSH2 0x13D5 JUMP JUMPDEST PUSH2 0xF5D JUMP JUMPDEST PUSH1 0xE0 PUSH2 0xF5D JUMP JUMPDEST PUSH1 0xE1 JUMPDEST SWAP1 POP PUSH2 0x4070 DUP2 DUP7 ADD LT ISZERO PUSH2 0xF78 JUMPI PUSH1 0x0 SWAP5 POP PUSH1 0x0 SWAP3 POP PUSH2 0x1015 JUMP JUMPDEST PUSH2 0x40E0 DUP2 DUP7 ADD LT ISZERO PUSH2 0xFBB JUMPI PUSH2 0x4070 DUP6 LT ISZERO PUSH2 0xF9D JUMPI DUP5 PUSH2 0x4070 SUB DUP4 SWAP1 SHR SWAP3 POP PUSH2 0xFB2 JUMP JUMPDEST PUSH2 0x4070 DUP6 GT ISZERO PUSH2 0xFB2 JUMPI PUSH2 0x4070 DUP6 SUB DUP4 SWAP1 SHL SWAP3 POP JUMPDEST PUSH1 0x0 SWAP5 POP PUSH2 0x1015 JUMP JUMPDEST PUSH2 0xC0DD DUP2 DUP7 ADD GT ISZERO PUSH2 0xFD5 JUMPI PUSH2 0x7FFF SWAP5 POP PUSH1 0x0 SWAP3 POP PUSH2 0x1015 JUMP JUMPDEST PUSH1 0x70 DUP2 GT ISZERO PUSH2 0xFEC JUMPI PUSH1 0x70 DUP2 SUB DUP4 SWAP1 SHR SWAP3 POP PUSH2 0xFFF JUMP JUMPDEST PUSH1 0x70 DUP2 LT ISZERO PUSH2 0xFFF JUMPI DUP1 PUSH1 0x70 SUB DUP4 SWAP1 SHL SWAP3 POP JUMPDEST PUSH1 0x1 PUSH1 0x1 PUSH1 0x70 SHL SUB DUP4 AND SWAP3 POP PUSH2 0x40DF DUP2 DUP7 ADD SUB SWAP5 POP JUMPDEST DUP3 PUSH1 0x70 DUP7 SWAP1 SHL DUP9 DUP11 XOR PUSH1 0x1 PUSH1 0x7F SHL PUSH1 0x80 SHL AND PUSH1 0x80 SHR PUSH1 0x1 PUSH1 0x1 PUSH1 0x80 SHL SUB AND OR OR PUSH1 0x80 SHL SWAP6 POP POP POP POP POP POP PUSH2 0x6FF JUMP JUMPDEST PUSH1 0x0 PUSH2 0x7FFF PUSH1 0xF0 DUP5 DUP2 SHR DUP3 AND SWAP2 SWAP1 DUP5 SWAP1 SHR DUP2 AND SWAP1 DUP3 EQ ISZERO PUSH2 0x1079 JUMPI DUP1 PUSH2 0x7FFF EQ ISZERO PUSH2 0xE66 JUMPI POP PUSH2 0xFFFF PUSH1 0xEF SHL SWAP2 POP PUSH2 0x6FF SWAP1 POP JUMP JUMPDEST DUP1 PUSH2 0x7FFF EQ ISZERO PUSH2 0x10BD JUMPI PUSH14 0xFFFFFFFFFFFFFFFFFFFFFFFFFFFF PUSH1 0x80 SHL DUP5 AND ISZERO PUSH2 0x10AC JUMPI POP PUSH2 0xFFFF PUSH1 0xEF SHL SWAP2 POP PUSH2 0x6FF SWAP1 POP JUMP JUMPDEST POP POP POP DUP1 DUP3 XOR PUSH1 0x1 PUSH1 0xFF SHL AND PUSH2 0x6FF JUMP JUMPDEST PUSH1 0x1 PUSH1 0x80 SHL PUSH1 0x1 PUSH1 0xFF SHL SUB DUP5 AND PUSH2 0x1107 JUMPI PUSH1 0x1 PUSH1 0x80 SHL PUSH1 0x1 PUSH1 0xFF SHL SUB DUP6 AND PUSH2 0x10EF JUMPI POP PUSH2 0xFFFF PUSH1 0xEF SHL SWAP2 POP PUSH2 0x6FF SWAP1 POP JUMP JUMPDEST POP POP POP DUP1 DUP3 XOR PUSH1 0x1 PUSH1 0xFF SHL AND PUSH2 0x7FFF PUSH1 0xF0 SHL OR PUSH2 0x6FF JUMP JUMPDEST PUSH1 0x1 PUSH1 0x1 PUSH1 0x70 SHL SUB PUSH1 0x80 DUP6 SWAP1 SHR AND DUP2 PUSH2 0x1123 JUMPI PUSH1 0x1 SWAP2 POP PUSH2 0x112A JUMP JUMPDEST PUSH1 0x1 PUSH1 0x70 SHL OR JUMPDEST PUSH1 0x1 PUSH1 0x1 PUSH1 0x70 SHL SUB PUSH1 0x80 DUP8 SWAP1 SHR AND DUP4 PUSH2 0x1169 JUMPI DUP1 ISZERO PUSH2 0x1164 JUMPI PUSH1 0x0 PUSH2 0x114E DUP3 PUSH2 0x13D5 JUMP JUMPDEST PUSH1 0x1 SWAP6 POP PUSH1 0xE2 SUB SWAP4 DUP5 ADD PUSH1 0x71 NOT ADD SWAP4 SWAP2 SWAP1 SWAP2 SHL SWAP1 POP JUMPDEST PUSH2 0x1173 JUMP JUMPDEST PUSH1 0x1 PUSH1 0x70 SHL OR PUSH1 0x72 SHL JUMPDEST DUP2 DUP2 DUP2 PUSH2 0x1182 JUMPI PUSH2 0x1182 PUSH2 0x17B7 JUMP JUMPDEST DIV SWAP1 POP DUP1 PUSH2 0x119E JUMPI PUSH1 0x1 PUSH1 0xFF SHL DUP8 DUP8 XOR AND PUSH2 0xF16 JUMPI PUSH1 0x0 PUSH2 0xF1C JUMP JUMPDEST PUSH1 0x1 PUSH1 0x6C SHL DUP2 LT ISZERO PUSH2 0x11B2 JUMPI PUSH2 0x11B2 PUSH2 0x17CD JUMP JUMPDEST PUSH1 0x0 PUSH1 0x1 PUSH1 0x73 SHL DUP3 LT ISZERO PUSH2 0x11F1 JUMPI PUSH1 0x1 PUSH1 0x72 SHL DUP3 LT ISZERO PUSH2 0x11E6 JUMPI PUSH1 0x1 PUSH1 0x71 SHL DUP3 LT ISZERO PUSH2 0x11DF JUMPI PUSH1 0x70 PUSH2 0x11E9 JUMP JUMPDEST PUSH1 0x71 PUSH2 0x11E9 JUMP JUMPDEST PUSH1 0x72 JUMPDEST PUSH1 0xFF AND PUSH2 0x11FA JUMP JUMPDEST PUSH2 0x11FA DUP3 PUSH2 0x13D5 JUMP JUMPDEST SWAP1 POP DUP4 PUSH2 0x4071 ADD DUP2 DUP7 ADD GT ISZERO PUSH2 0x1218 JUMPI PUSH2 0x7FFF SWAP5 POP PUSH1 0x0 SWAP2 POP PUSH2 0x12AB JUMP JUMPDEST DUP4 DUP2 DUP7 ADD PUSH2 0x3FFC ADD LT ISZERO PUSH2 0x1233 JUMPI PUSH1 0x0 SWAP5 POP PUSH1 0x0 SWAP2 POP PUSH2 0x12AB JUMP JUMPDEST DUP4 DUP2 DUP7 ADD PUSH2 0x3F8C ADD LT ISZERO PUSH2 0x1280 JUMPI DUP4 DUP6 PUSH2 0x3FFC ADD GT ISZERO PUSH2 0x125E JUMPI DUP4 DUP6 PUSH2 0x3FFC ADD SUB DUP3 SWAP1 SHL SWAP2 POP PUSH2 0x1277 JUMP JUMPDEST DUP4 DUP6 PUSH2 0x3FFC ADD LT ISZERO PUSH2 0x1277 JUMPI PUSH2 0x3FFC DUP6 DUP6 SUB SUB DUP3 SWAP1 SHR SWAP2 POP JUMPDEST PUSH1 0x0 SWAP5 POP PUSH2 0x12AB JUMP JUMPDEST PUSH1 0x70 DUP2 GT ISZERO PUSH2 0x1293 JUMPI PUSH1 0x70 DUP2 SUB DUP3 SWAP1 SHR SWAP2 POP JUMPDEST PUSH1 0x1 PUSH1 0x1 PUSH1 0x70 SHL SUB DUP3 AND SWAP2 POP DUP4 DUP2 DUP7 ADD PUSH2 0x3F8D ADD SUB SWAP5 POP JUMPDEST DUP2 PUSH1 0x70 DUP7 SWAP1 SHL DUP9 DUP11 XOR PUSH1 0x1 PUSH1 0x7F SHL PUSH1 0x80 SHL AND PUSH1 0x80 SHR PUSH1 0x1 PUSH1 0x1 PUSH1 0x80 SHL SUB AND OR OR PUSH1 0x80 SHL SWAP6 POP POP POP POP POP POP PUSH2 0x6FF JUMP JUMPDEST PUSH1 0x0 PUSH2 0x7FFF PUSH1 0xF0 DUP4 SWAP1 SHR AND PUSH2 0x3FFF DUP2 LT ISZERO PUSH2 0x12F8 JUMPI POP PUSH1 0x0 SWAP3 SWAP2 POP POP JUMP JUMPDEST PUSH1 0x1 PUSH1 0x7F SHL PUSH1 0x80 DUP5 SWAP1 SHR LT PUSH2 0x130C JUMPI PUSH1 0x0 DUP1 REVERT JUMPDEST PUSH2 0x40FE DUP2 GT ISZERO PUSH2 0x131B JUMPI PUSH1 0x0 DUP1 REVERT JUMPDEST PUSH1 0x1 PUSH1 0x70 SHL PUSH1 0x1 PUSH1 0x1 PUSH1 0x70 SHL SUB PUSH1 0x80 DUP6 SWAP1 SHR AND OR PUSH2 0x406F DUP3 LT ISZERO PUSH2 0x1345 JUMPI PUSH2 0x406F DUP3 SWAP1 SUB SHR PUSH2 0xD57 JUMP JUMPDEST PUSH2 0x406F DUP3 GT ISZERO PUSH2 0xD57 JUMPI PUSH2 0x406E NOT DUP3 ADD SHL SWAP4 SWAP3 POP POP POP JUMP JUMPDEST PUSH1 0x0 PUSH2 0xD57 DUP3 DUP5 PUSH2 0x17E3 JUMP JUMPDEST PUSH1 0x0 PUSH2 0xD57 DUP3 DUP5 PUSH2 0x1802 JUMP JUMPDEST PUSH1 0x0 PUSH2 0xD57 DUP3 DUP5 PUSH2 0x181A JUMP JUMPDEST PUSH1 0x0 DUP1 PUSH1 0x0 DUP1 PUSH1 0x0 DUP1 PUSH1 0x0 DUP1 DUP10 PUSH1 0x1 PUSH1 0x1 PUSH1 0xA0 SHL SUB AND DUP13 PUSH1 0x1 PUSH1 0x1 PUSH1 0xA0 SHL SUB AND GT ISZERO PUSH2 0x13B7 JUMPI POP DUP11 SWAP3 POP DUP10 SWAP2 POP DUP9 SWAP1 POP DUP8 PUSH2 0x13C3 JUMP JUMPDEST POP DUP9 SWAP3 POP DUP8 SWAP2 POP DUP11 SWAP1 POP DUP10 JUMPDEST SWAP3 SWAP12 SWAP2 SWAP11 POP SWAP9 POP SWAP1 SWAP7 POP SWAP5 POP POP POP POP POP JUMP JUMPDEST PUSH1 0x0 DUP1 DUP3 GT PUSH2 0x13E3 JUMPI PUSH1 0x0 DUP1 REVERT JUMPDEST PUSH1 0x0 PUSH1 0x1 PUSH1 0x80 SHL DUP4 LT PUSH2 0x13F8 JUMPI PUSH1 0x80 SWAP3 DUP4 SHR SWAP3 ADD JUMPDEST PUSH9 0x10000000000000000 DUP4 LT PUSH2 0x1410 JUMPI PUSH1 0x40 SWAP3 DUP4 SHR SWAP3 ADD JUMPDEST PUSH5 0x100000000 DUP4 LT PUSH2 0x1424 JUMPI PUSH1 0x20 SWAP3 DUP4 SHR SWAP3 ADD JUMPDEST PUSH3 0x10000 DUP4 LT PUSH2 0x1436 JUMPI PUSH1 0x10 SWAP3 DUP4 SHR SWAP3 ADD JUMPDEST PUSH2 0x100 DUP4 LT PUSH2 0x1447 JUMPI PUSH1 0x8 SWAP3 DUP4 SHR SWAP3 ADD JUMPDEST PUSH1 0x10 DUP4 LT PUSH2 0x1457 JUMPI PUSH1 0x4 SWAP3 DUP4 SHR SWAP3 ADD JUMPDEST PUSH1 0x4 DUP4 LT PUSH2 0x1467 JUMPI PUSH1 0x2 SWAP3 DUP4 SHR SWAP3 ADD JUMPDEST PUSH1 0x2 DUP4 LT PUSH2 0x6FF JUMPI PUSH1 0x1 ADD SWAP3 SWAP2 POP POP JUMP JUMPDEST PUSH1 0x0 PUSH1 0x20 DUP3 DUP5 SUB SLT ISZERO PUSH2 0x148A JUMPI PUSH1 0x0 DUP1 REVERT JUMPDEST POP CALLDATALOAD SWAP2 SWAP1 POP JUMP JUMPDEST PUSH1 0x0 DUP1 PUSH1 0x0 PUSH1 0x60 DUP5 DUP7 SUB SLT ISZERO PUSH2 0x14A6 JUMPI PUSH1 0x0 DUP1 REVERT JUMPDEST POP POP DUP2 CALLDATALOAD SWAP4 PUSH1 0x20 DUP4 ADD CALLDATALOAD SWAP4 POP PUSH1 0x40 SWAP1 SWAP3 ADD CALLDATALOAD SWAP2 SWAP1 POP JUMP JUMPDEST PUSH4 0x4E487B71 PUSH1 0xE0 SHL PUSH1 0x0 MSTORE PUSH1 0x41 PUSH1 0x4 MSTORE PUSH1 0x24 PUSH1 0x0 REVERT JUMPDEST PUSH1 0x40 MLOAD PUSH1 0x1F DUP3 ADD PUSH1 0x1F NOT AND DUP2 ADD PUSH8 0xFFFFFFFFFFFFFFFF DUP2 GT DUP3 DUP3 LT OR ISZERO PUSH2 0x14FC JUMPI PUSH2 0x14FC PUSH2 0x14BD JUMP JUMPDEST PUSH1 0x40 MSTORE SWAP2 SWAP1 POP JUMP JUMPDEST PUSH1 0x0 PUSH8 0xFFFFFFFFFFFFFFFF DUP3 GT ISZERO PUSH2 0x151E JUMPI PUSH2 0x151E PUSH2 0x14BD JUMP JUMPDEST POP PUSH1 0x5 SHL PUSH1 0x20 ADD SWAP1 JUMP JUMPDEST DUP1 CALLDATALOAD PUSH1 0x1 PUSH1 0x1 PUSH1 0xA0 SHL SUB DUP2 AND DUP2 EQ PUSH2 0xDC2 JUMPI PUSH1 0x0 DUP1 REVERT JUMPDEST PUSH1 0x0 DUP3 PUSH1 0x1F DUP4 ADD SLT PUSH2 0x1550 JUMPI PUSH1 0x0 DUP1 REVERT JUMPDEST DUP2 CALLDATALOAD PUSH1 0x20 PUSH2 0x1565 PUSH2 0x1560 DUP4 PUSH2 0x1504 JUMP JUMPDEST PUSH2 0x14D3 JUMP JUMPDEST DUP3 DUP2 MSTORE PUSH1 0x5 SWAP3 SWAP1 SWAP3 SHL DUP5 ADD DUP2 ADD SWAP2 DUP2 DUP2 ADD SWAP1 DUP7 DUP5 GT ISZERO PUSH2 0x1584 JUMPI PUSH1 0x0 DUP1 REVERT JUMPDEST DUP3 DUP7 ADD JUMPDEST DUP5 DUP2 LT ISZERO PUSH2 0x15A6 JUMPI PUSH2 0x1599 DUP2 PUSH2 0x1528 JUMP JUMPDEST DUP4 MSTORE SWAP2 DUP4 ADD SWAP2 DUP4 ADD PUSH2 0x1588 JUMP JUMPDEST POP SWAP7 SWAP6 POP POP POP POP POP POP JUMP JUMPDEST PUSH1 0x0 DUP1 PUSH1 0x40 DUP4 DUP6 SUB SLT ISZERO PUSH2 0x15C4 JUMPI PUSH1 0x0 DUP1 REVERT JUMPDEST DUP3 CALLDATALOAD PUSH8 0xFFFFFFFFFFFFFFFF DUP2 GT ISZERO PUSH2 0x15DB JUMPI PUSH1 0x0 DUP1 REVERT JUMPDEST PUSH2 0x15E7 DUP6 DUP3 DUP7 ADD PUSH2 0x153F JUMP JUMPDEST SWAP6 PUSH1 0x20 SWAP5 SWAP1 SWAP5 ADD CALLDATALOAD SWAP5 POP POP POP POP JUMP JUMPDEST PUSH1 0x0 PUSH1 0x20 DUP3 DUP5 SUB SLT ISZERO PUSH2 0x1608 JUMPI PUSH1 0x0 DUP1 REVERT JUMPDEST PUSH2 0xD57 DUP3 PUSH2 0x1528 JUMP JUMPDEST PUSH1 0x0 DUP1 PUSH1 0x40 DUP4 DUP6 SUB SLT ISZERO PUSH2 0x1624 JUMPI PUSH1 0x0 DUP1 REVERT JUMPDEST DUP3 CALLDATALOAD PUSH8 0xFFFFFFFFFFFFFFFF DUP1 DUP3 GT ISZERO PUSH2 0x163C JUMPI PUSH1 0x0 DUP1 REVERT JUMPDEST PUSH2 0x1648 DUP7 DUP4 DUP8 ADD PUSH2 0x153F JUMP JUMPDEST SWAP4 POP PUSH1 0x20 SWAP2 POP DUP2 DUP6 ADD CALLDATALOAD DUP2 DUP2 GT ISZERO PUSH2 0x165F JUMPI PUSH1 0x0 DUP1 REVERT JUMPDEST DUP6 ADD SWAP1 POP PUSH1 0x1F DUP2 ADD DUP7 SGT PUSH2 0x1672 JUMPI PUSH1 0x0 DUP1 REVERT JUMPDEST DUP1 CALLDATALOAD PUSH2 0x1680 PUSH2 0x1560 DUP3 PUSH2 0x1504 JUMP JUMPDEST DUP2 DUP2 MSTORE PUSH1 0x5 SWAP2 SWAP1 SWAP2 SHL DUP3 ADD DUP4 ADD SWAP1 DUP4 DUP2 ADD SWAP1 DUP9 DUP4 GT ISZERO PUSH2 0x169F JUMPI PUSH1 0x0 DUP1 REVERT JUMPDEST SWAP3 DUP5 ADD SWAP3 JUMPDEST DUP3 DUP5 LT ISZERO PUSH2 0x16BD JUMPI DUP4 CALLDATALOAD DUP3 MSTORE SWAP3 DUP5 ADD SWAP3 SWAP1 DUP5 ADD SWAP1 PUSH2 0x16A4 JUMP JUMPDEST DUP1 SWAP6 POP POP POP POP POP POP SWAP3 POP SWAP3 SWAP1 POP JUMP JUMPDEST PUSH1 0x0 PUSH1 0x20 DUP3 DUP5 SUB SLT ISZERO PUSH2 0x16DE JUMPI PUSH1 0x0 DUP1 REVERT JUMPDEST DUP2 MLOAD DUP1 ISZERO ISZERO DUP2 EQ PUSH2 0xD57 JUMPI PUSH1 0x0 DUP1 REVERT JUMPDEST DUP1 PUSH1 0x0 JUMPDEST PUSH1 0x2 DUP2 LT ISZERO PUSH2 0x1711 JUMPI DUP2 MLOAD DUP5 MSTORE PUSH1 0x20 SWAP4 DUP5 ADD SWAP4 SWAP1 SWAP2 ADD SWAP1 PUSH1 0x1 ADD PUSH2 0x16F2 JUMP JUMPDEST POP POP POP POP JUMP JUMPDEST PUSH1 0xE0 DUP2 ADD DUP2 DUP7 PUSH1 0x0 JUMPDEST PUSH1 0x2 DUP2 LT ISZERO PUSH2 0x1748 JUMPI DUP2 MLOAD PUSH1 0x1 PUSH1 0x1 PUSH1 0xA0 SHL SUB AND DUP4 MSTORE PUSH1 0x20 SWAP3 DUP4 ADD SWAP3 SWAP1 SWAP2 ADD SWAP1 PUSH1 0x1 ADD PUSH2 0x1720 JUMP JUMPDEST POP POP POP PUSH2 0x1758 PUSH1 0x40 DUP4 ADD DUP7 PUSH2 0x16EE JUMP JUMPDEST PUSH2 0x1765 PUSH1 0x80 DUP4 ADD DUP6 PUSH2 0x16EE JUMP JUMPDEST DUP3 PUSH1 0xC0 DUP4 ADD MSTORE SWAP6 SWAP5 POP POP POP POP POP JUMP JUMPDEST PUSH4 0x4E487B71 PUSH1 0xE0 SHL PUSH1 0x0 MSTORE PUSH1 0x32 PUSH1 0x4 MSTORE PUSH1 0x24 PUSH1 0x0 REVERT JUMPDEST PUSH4 0x4E487B71 PUSH1 0xE0 SHL PUSH1 0x0 MSTORE PUSH1 0x11 PUSH1 0x4 MSTORE PUSH1 0x24 PUSH1 0x0 REVERT JUMPDEST PUSH1 0x0 DUP3 DUP3 LT ISZERO PUSH2 0x17B2 JUMPI PUSH2 0x17B2 PUSH2 0x178A JUMP JUMPDEST POP SUB SWAP1 JUMP JUMPDEST PUSH4 0x4E487B71 PUSH1 0xE0 SHL PUSH1 0x0 MSTORE PUSH1 0x12 PUSH1 0x4 MSTORE PUSH1 0x24 PUSH1 0x0 REVERT JUMPDEST PUSH4 0x4E487B71 PUSH1 0xE0 SHL PUSH1 0x0 MSTORE PUSH1 0x1 PUSH1 0x4 MSTORE PUSH1 0x24 PUSH1 0x0 REVERT JUMPDEST PUSH1 0x0 DUP2 PUSH1 0x0 NOT DIV DUP4 GT DUP3 ISZERO ISZERO AND ISZERO PUSH2 0x17FD JUMPI PUSH2 0x17FD PUSH2 0x178A JUMP JUMPDEST POP MUL SWAP1 JUMP JUMPDEST PUSH1 0x0 DUP3 NOT DUP3 GT ISZERO PUSH2 0x1815 JUMPI PUSH2 0x1815 PUSH2 0x178A JUMP JUMPDEST POP ADD SWAP1 JUMP JUMPDEST PUSH1 0x0 DUP3 PUSH2 0x1837 JUMPI PUSH4 0x4E487B71 PUSH1 0xE0 SHL PUSH1 0x0 MSTORE PUSH1 0x12 PUSH1 0x4 MSTORE PUSH1 0x24 PUSH1 0x0 REVERT JUMPDEST POP DIV SWAP1 JUMP INVALID LOG2 PUSH5 0x6970667358 0x22 SLT KECCAK256 CALL PUSH30 0xD756DF1823E6824A678E6150A3324E6A90F4E47082D7503C08884B52D93D PUSH5 0x736F6C6343 STOP ADDMOD MULMOD STOP CALLER ",
  "sha1": "daf430f19c9fe1a46caeb86112ee513600166c05",
  "source": "pragma solidity ^0.8.0;\n// SPDX-License-Identifier: MIT\n// This is a basic liquidity pool contract. It is used for prototyping an automated market maker.\n// Second step will be a factory contract that deploys this contract for multiple token pairs.\n// Improvements to be made:\n//      - Add modifiers\n//      - Add indexing to events\n\nimport \"./ERC20PresetMinterPauser.sol\";\nimport \"@openzeppelin/contracts/token/ERC20/ERC20.sol\";\nimport \"@openzeppelin/contracts/token/ERC20/utils/SafeERC20.sol\";\nimport \"@openzeppelin/contracts/utils/math/SafeMath.sol\";\nimport \"./ABDKMathQuad.sol\";\n\ncontract LiquidityPool {\n\n    using SafeMath for uint256;\n\n    mapping(address => uint256) public reserves;\n\n    mapping(address => IERC20) public interfaces;\n\n    address public token0;\n    address public token1;\n\n    address public lpTokenAddress;\n    uint256 public lpTokenTotalSupply;\n\n    uint256 internal transactionFee = 5;\n\n    ERC20PresetMinterPauser public lpToken;\n\n    event LpCreated(address[2] tokens);\n    event LpTokenCreated(string name, string ticker, address tokenAddress);\n\n    event DepositConfirmed(\n        address[2] tokens,\n        uint256[2] tokenAmounts,\n        uint256[2] tokenReserves,\n        uint256 lpTokensCreated\n    );\n    event WithdrawalConfirmed(\n        address[2] tokens,\n        uint256[2] tokenAmounts,\n        uint256[2] tokenReserves,\n        uint256 lpTokensBurned\n    );\n\n    constructor(address[2] memory tokens, string memory lpTokenName, string memory lpTokenTicker) public {\n        (token0, token1) = sortTokens(tokens[0], tokens[1]);\n\n        interfaces[token0] = IERC20(token0);\n        interfaces[token1] = IERC20(token1);\n\n       lpTokenAddress = address(\n            new ERC20PresetMinterPauser(lpTokenName, lpTokenTicker)\n        );\n\n        lpToken = ERC20PresetMinterPauser(lpTokenAddress);\n\n        emit LpTokenCreated(lpTokenName, lpTokenTicker, lpTokenAddress);\n\n        lpTokenTotalSupply = 1000;\n\n        emit LpCreated(tokens);\n    }\n\n    // This function could be deleted and front end can read from logs\n    function returnTokenAddress() public view returns (address) {\n        return lpTokenAddress;\n    }\n\n    function quote() public view returns (uint256) {\n        uint256 exchangeRate = reserves[token1].div(reserves[token0]);\n        return exchangeRate;\n    }\n\n    function sortTokens(address tokenA,  address tokenB) internal pure returns(address, address){\n        address tokenHigh;\n        address tokenLow;\n\n        if (tokenA > tokenB){\n            (tokenHigh, tokenLow) = (tokenA, tokenB);\n            }\n        else{\n            (tokenHigh, tokenLow) = (tokenB, tokenA);\n            }\n\n        return (tokenHigh, tokenLow);\n    }\n\n    function sortTokensAndAmounts(address tokenA, uint256 tokenAAmount, address tokenB, uint256 tokenBAmount) internal pure returns(address, uint256, address, uint256){\n        address tokenHigh;\n        uint256 tokenHighAmount;\n        address tokenLow;\n        uint256 tokenLowAmount;\n\n        if (tokenA > tokenB){\n            (tokenHigh, tokenHighAmount, tokenLow, tokenLowAmount) = (tokenA, tokenAAmount, tokenB, tokenBAmount);\n            }\n        else{\n            (tokenHigh, tokenHighAmount, tokenLow, tokenLowAmount) = (tokenB, tokenBAmount, tokenA, tokenAAmount);\n            }\n\n        return (tokenHigh, tokenHighAmount, tokenLow, tokenLowAmount);\n    }\n\n\n    function calculatePercentage(uint x, uint y, uint z)\n        public pure returns (uint) {\n        // y * 100 / x - how much is y a percentage of x\n        // x * y / 100 - x percent of y\n            return\n            ABDKMathQuad.toUInt (\n              ABDKMathQuad.div (\n                ABDKMathQuad.mul (\n                  ABDKMathQuad.fromUInt(x),\n                  ABDKMathQuad.fromUInt(y)\n                ),\n                ABDKMathQuad.fromUInt(z)\n              )\n            );\n        }\n\n\n    function deposit(address[] memory tokens, uint256[] memory tokenAmounts) public {\n        uint256 token0Amount;\n        uint256 token1Amount;\n\n        (token0, token0Amount, token1, token1Amount) = sortTokensAndAmounts(tokens[0], tokenAmounts[0], tokens[1], tokenAmounts[1]);\n\n        interfaces[token0].transferFrom(msg.sender, address(this), token0Amount);\n        interfaces[token1].transferFrom(msg.sender, address(this), token1Amount);\n\n        reserves[token0] = reserves[token0].add(token0Amount);\n        reserves[token1] = reserves[token1].add(token1Amount);\n\n        uint256 lpTokenAmount = token0Amount;\n\n        lpToken.mint(msg.sender, lpTokenAmount);\n        lpTokenTotalSupply = lpTokenTotalSupply.add(lpTokenAmount);\n\n        emit DepositConfirmed(\n            [token0, token1],\n            [token0Amount, token1Amount],\n            [reserves[token0], reserves[token1]],\n            lpTokenAmount\n        );\n    }\n\n\n    function withdraw(uint256 lpTokenAmount) public {\n        //y * 100 / x - what percentage is y of x\n\n        uint256 lpTokenPer = calculatePercentage(lpTokenAmount, 100, lpTokenTotalSupply);\n\n        // x * y / 100 - how much is x percent of y\n        uint256 token0Amount = calculatePercentage(lpTokenPer, reserves[token0], 100);\n        uint256 token1Amount = calculatePercentage(lpTokenPer, reserves[token1], 100);\n\n        lpToken.burnFrom(msg.sender, lpTokenAmount);\n        lpTokenTotalSupply = lpTokenTotalSupply.sub(lpTokenAmount);\n\n        reserves[token0] = reserves[token0].sub(token0Amount);\n        reserves[token1] = reserves[token1].sub(token1Amount);\n\n        interfaces[token0].transfer(msg.sender, reserves[token0]);\n        interfaces[token1].transfer(msg.sender, reserves[token1]);\n\n        emit WithdrawalConfirmed(\n            [token0, token1],\n            [token0Amount, token1Amount],\n            [reserves[token0], reserves[token1]],\n            lpTokenAmount\n        );\n    }\n\n\n    function calculateTokensOut(address[] memory tokens, uint256 tokenAmount) public view returns(uint256){\n        // (x + x1_in) * (y - y1_out) = k;\n        // y1_out = y-(k/(x + x1_in));\n        // Putting a 5% transaction fee\n        uint256 k = reserves[tokens[0]].mul(reserves[tokens[1]]);\n        uint256 x1 = calculatePercentage(100 - transactionFee, tokenAmount, 100);\n        uint256 x = reserves[tokens[0]];\n        uint256 y = reserves[tokens[1]];\n        uint256 y1 = y.sub(k.div(x.add(x1)));\n\n    return y1;\n\n}\n\n\n    function swapPutIn(address[] memory tokens, uint256 tokenAmountIn)\n        public\n        returns (uint256)\n    {\n        uint256 tokenAmountOut = calculateTokensOut(tokens, tokenAmountIn);\n\n        reserves[tokens[0]] = reserves[tokens[0]].add(tokenAmountIn);\n        reserves[tokens[1]] = reserves[tokens[1]].sub(tokenAmountOut);\n\n        interfaces[tokens[0]].transferFrom(msg.sender, address(this), tokenAmountIn);\n        interfaces[tokens[1]].transfer(msg.sender, tokenAmountOut);\n    return tokenAmountOut;\n\n        }\n\n}\n",
  "sourcePath": "contracts/LiquidityPool.sol",
  "type": "contract"
}